{
  "address": "0xC72c4E260bb68AFdBEfa1A47Ed2aecD774a351Aa",
  "abi": [
    {
      "inputs": [
        {
          "internalType": "contract IEAS",
          "name": "eas",
          "type": "address"
        }
      ],
      "stateMutability": "nonpayable",
      "type": "constructor"
    },
    {
      "inputs": [],
      "name": "AccessDenied",
      "type": "error"
    },
    {
      "inputs": [],
      "name": "DeadlineExpired",
      "type": "error"
    },
    {
      "inputs": [],
      "name": "InvalidEAS",
      "type": "error"
    },
    {
      "inputs": [],
      "name": "InvalidLength",
      "type": "error"
    },
    {
      "inputs": [],
      "name": "InvalidShortString",
      "type": "error"
    },
    {
      "inputs": [],
      "name": "InvalidSignature",
      "type": "error"
    },
    {
      "inputs": [],
      "name": "NotFound",
      "type": "error"
    },
    {
      "inputs": [
        {
          "internalType": "string",
          "name": "str",
          "type": "string"
        }
      ],
      "name": "StringTooLong",
      "type": "error"
    },
    {
      "inputs": [],
      "name": "UsedSignature",
      "type": "error"
    },
    {
      "anonymous": false,
      "inputs": [],
      "name": "EIP712DomainChanged",
      "type": "event"
    },
    {
      "anonymous": false,
      "inputs": [
        {
          "indexed": true,
          "internalType": "address",
          "name": "previousOwner",
          "type": "address"
        },
        {
          "indexed": true,
          "internalType": "address",
          "name": "newOwner",
          "type": "address"
        }
      ],
      "name": "OwnershipTransferred",
      "type": "event"
    },
    {
      "inputs": [
        {
          "components": [
            {
              "internalType": "bytes32",
              "name": "schema",
              "type": "bytes32"
            },
            {
              "components": [
                {
                  "internalType": "address",
                  "name": "recipient",
                  "type": "address"
                },
                {
                  "internalType": "uint64",
                  "name": "expirationTime",
                  "type": "uint64"
                },
                {
                  "internalType": "bool",
                  "name": "revocable",
                  "type": "bool"
                },
                {
                  "internalType": "bytes32",
                  "name": "refUID",
                  "type": "bytes32"
                },
                {
                  "internalType": "bytes",
                  "name": "data",
                  "type": "bytes"
                },
                {
                  "internalType": "uint256",
                  "name": "value",
                  "type": "uint256"
                }
              ],
              "internalType": "struct AttestationRequestData",
              "name": "data",
              "type": "tuple"
            }
          ],
          "internalType": "struct AttestationRequest",
          "name": "request",
          "type": "tuple"
        }
      ],
      "name": "attest",
      "outputs": [
        {
          "internalType": "bytes32",
          "name": "",
          "type": "bytes32"
        }
      ],
      "stateMutability": "nonpayable",
      "type": "function"
    },
    {
      "inputs": [
        {
          "components": [
            {
              "internalType": "bytes32",
              "name": "schema",
              "type": "bytes32"
            },
            {
              "components": [
                {
                  "internalType": "address",
                  "name": "recipient",
                  "type": "address"
                },
                {
                  "internalType": "uint64",
                  "name": "expirationTime",
                  "type": "uint64"
                },
                {
                  "internalType": "bool",
                  "name": "revocable",
                  "type": "bool"
                },
                {
                  "internalType": "bytes32",
                  "name": "refUID",
                  "type": "bytes32"
                },
                {
                  "internalType": "bytes",
                  "name": "data",
                  "type": "bytes"
                },
                {
                  "internalType": "uint256",
                  "name": "value",
                  "type": "uint256"
                }
              ],
              "internalType": "struct AttestationRequestData",
              "name": "data",
              "type": "tuple"
            },
            {
              "components": [
                {
                  "internalType": "uint8",
                  "name": "v",
                  "type": "uint8"
                },
                {
                  "internalType": "bytes32",
                  "name": "r",
                  "type": "bytes32"
                },
                {
                  "internalType": "bytes32",
                  "name": "s",
                  "type": "bytes32"
                }
              ],
              "internalType": "struct Signature",
              "name": "signature",
              "type": "tuple"
            },
            {
              "internalType": "address",
              "name": "attester",
              "type": "address"
            },
            {
              "internalType": "uint64",
              "name": "deadline",
              "type": "uint64"
            }
          ],
          "internalType": "struct DelegatedProxyAttestationRequest",
          "name": "delegatedRequest",
          "type": "tuple"
        }
      ],
      "name": "attestByDelegation",
      "outputs": [
        {
          "internalType": "bytes32",
          "name": "",
          "type": "bytes32"
        }
      ],
      "stateMutability": "payable",
      "type": "function"
    },
    {
      "inputs": [],
      "name": "eip712Domain",
      "outputs": [
        {
          "internalType": "bytes1",
          "name": "fields",
          "type": "bytes1"
        },
        {
          "internalType": "string",
          "name": "name",
          "type": "string"
        },
        {
          "internalType": "string",
          "name": "version",
          "type": "string"
        },
        {
          "internalType": "uint256",
          "name": "chainId",
          "type": "uint256"
        },
        {
          "internalType": "address",
          "name": "verifyingContract",
          "type": "address"
        },
        {
          "internalType": "bytes32",
          "name": "salt",
          "type": "bytes32"
        },
        {
          "internalType": "uint256[]",
          "name": "extensions",
          "type": "uint256[]"
        }
      ],
      "stateMutability": "view",
      "type": "function"
    },
    {
      "inputs": [],
      "name": "getAttestTypeHash",
      "outputs": [
        {
          "internalType": "bytes32",
          "name": "",
          "type": "bytes32"
        }
      ],
      "stateMutability": "pure",
      "type": "function"
    },
    {
      "inputs": [
        {
          "internalType": "bytes32",
          "name": "uid",
          "type": "bytes32"
        }
      ],
      "name": "getAttester",
      "outputs": [
        {
          "internalType": "address",
          "name": "",
          "type": "address"
        }
      ],
      "stateMutability": "view",
      "type": "function"
    },
    {
      "inputs": [],
      "name": "getDomainSeparator",
      "outputs": [
        {
          "internalType": "bytes32",
          "name": "",
          "type": "bytes32"
        }
      ],
      "stateMutability": "view",
      "type": "function"
    },
    {
      "inputs": [],
      "name": "getEAS",
      "outputs": [
        {
          "internalType": "contract IEAS",
          "name": "",
          "type": "address"
        }
      ],
      "stateMutability": "view",
      "type": "function"
    },
    {
      "inputs": [],
      "name": "getName",
      "outputs": [
        {
          "internalType": "string",
          "name": "",
          "type": "string"
        }
      ],
      "stateMutability": "view",
      "type": "function"
    },
    {
      "inputs": [],
      "name": "getRevokeTypeHash",
      "outputs": [
        {
          "internalType": "bytes32",
          "name": "",
          "type": "bytes32"
        }
      ],
      "stateMutability": "pure",
      "type": "function"
    },
    {
      "inputs": [
        {
          "internalType": "address",
          "name": "attesterAddress",
          "type": "address"
        }
      ],
      "name": "isAttester",
      "outputs": [
        {
          "internalType": "bool",
          "name": "isAttester",
          "type": "bool"
        }
      ],
      "stateMutability": "view",
      "type": "function"
    },
    {
      "inputs": [
        {
          "components": [
            {
              "internalType": "bytes32",
              "name": "schema",
              "type": "bytes32"
            },
            {
              "components": [
                {
                  "internalType": "address",
                  "name": "recipient",
                  "type": "address"
                },
                {
                  "internalType": "uint64",
                  "name": "expirationTime",
                  "type": "uint64"
                },
                {
                  "internalType": "bool",
                  "name": "revocable",
                  "type": "bool"
                },
                {
                  "internalType": "bytes32",
                  "name": "refUID",
                  "type": "bytes32"
                },
                {
                  "internalType": "bytes",
                  "name": "data",
                  "type": "bytes"
                },
                {
                  "internalType": "uint256",
                  "name": "value",
                  "type": "uint256"
                }
              ],
              "internalType": "struct AttestationRequestData[]",
              "name": "data",
              "type": "tuple[]"
            },
            {
              "components": [
                {
                  "internalType": "uint8",
                  "name": "v",
                  "type": "uint8"
                },
                {
                  "internalType": "bytes32",
                  "name": "r",
                  "type": "bytes32"
                },
                {
                  "internalType": "bytes32",
                  "name": "s",
                  "type": "bytes32"
                }
              ],
              "internalType": "struct Signature[]",
              "name": "signatures",
              "type": "tuple[]"
            },
            {
              "internalType": "address",
              "name": "attester",
              "type": "address"
            },
            {
              "internalType": "uint64",
              "name": "deadline",
              "type": "uint64"
            }
          ],
          "internalType": "struct MultiDelegatedProxyAttestationRequest[]",
          "name": "multiDelegatedRequests",
          "type": "tuple[]"
        }
      ],
      "name": "multiAttestByDelegation",
      "outputs": [
        {
          "internalType": "bytes32[]",
          "name": "",
          "type": "bytes32[]"
        }
      ],
      "stateMutability": "payable",
      "type": "function"
    },
    {
      "inputs": [
        {
          "components": [
            {
              "internalType": "bytes32",
              "name": "schema",
              "type": "bytes32"
            },
            {
              "components": [
                {
                  "internalType": "bytes32",
                  "name": "uid",
                  "type": "bytes32"
                },
                {
                  "internalType": "uint256",
                  "name": "value",
                  "type": "uint256"
                }
              ],
              "internalType": "struct RevocationRequestData[]",
              "name": "data",
              "type": "tuple[]"
            },
            {
              "components": [
                {
                  "internalType": "uint8",
                  "name": "v",
                  "type": "uint8"
                },
                {
                  "internalType": "bytes32",
                  "name": "r",
                  "type": "bytes32"
                },
                {
                  "internalType": "bytes32",
                  "name": "s",
                  "type": "bytes32"
                }
              ],
              "internalType": "struct Signature[]",
              "name": "signatures",
              "type": "tuple[]"
            },
            {
              "internalType": "address",
              "name": "revoker",
              "type": "address"
            },
            {
              "internalType": "uint64",
              "name": "deadline",
              "type": "uint64"
            }
          ],
          "internalType": "struct MultiDelegatedProxyRevocationRequest[]",
          "name": "multiDelegatedRequests",
          "type": "tuple[]"
        }
      ],
      "name": "multiRevokeByDelegation",
      "outputs": [],
      "stateMutability": "payable",
      "type": "function"
    },
    {
      "inputs": [],
      "name": "owner",
      "outputs": [
        {
          "internalType": "address",
          "name": "",
          "type": "address"
        }
      ],
      "stateMutability": "view",
      "type": "function"
    },
    {
      "inputs": [],
      "name": "renounceOwnership",
      "outputs": [],
      "stateMutability": "nonpayable",
      "type": "function"
    },
    {
      "inputs": [
        {
          "components": [
            {
              "internalType": "bytes32",
              "name": "schema",
              "type": "bytes32"
            },
            {
              "components": [
                {
                  "internalType": "bytes32",
                  "name": "uid",
                  "type": "bytes32"
                },
                {
                  "internalType": "uint256",
                  "name": "value",
                  "type": "uint256"
                }
              ],
              "internalType": "struct RevocationRequestData",
              "name": "data",
              "type": "tuple"
            }
          ],
          "internalType": "struct RevocationRequest",
          "name": "request",
          "type": "tuple"
        }
      ],
      "name": "revoke",
      "outputs": [],
      "stateMutability": "nonpayable",
      "type": "function"
    },
    {
      "inputs": [
        {
          "components": [
            {
              "internalType": "bytes32",
              "name": "schema",
              "type": "bytes32"
            },
            {
              "components": [
                {
                  "internalType": "bytes32",
                  "name": "uid",
                  "type": "bytes32"
                },
                {
                  "internalType": "uint256",
                  "name": "value",
                  "type": "uint256"
                }
              ],
              "internalType": "struct RevocationRequestData",
              "name": "data",
              "type": "tuple"
            },
            {
              "components": [
                {
                  "internalType": "uint8",
                  "name": "v",
                  "type": "uint8"
                },
                {
                  "internalType": "bytes32",
                  "name": "r",
                  "type": "bytes32"
                },
                {
                  "internalType": "bytes32",
                  "name": "s",
                  "type": "bytes32"
                }
              ],
              "internalType": "struct Signature",
              "name": "signature",
              "type": "tuple"
            },
            {
              "internalType": "address",
              "name": "revoker",
              "type": "address"
            },
            {
              "internalType": "uint64",
              "name": "deadline",
              "type": "uint64"
            }
          ],
          "internalType": "struct DelegatedProxyRevocationRequest",
          "name": "delegatedRequest",
          "type": "tuple"
        }
      ],
      "name": "revokeByDelegation",
      "outputs": [],
      "stateMutability": "payable",
      "type": "function"
    },
    {
      "inputs": [
        {
          "internalType": "address",
          "name": "attester",
          "type": "address"
        },
        {
          "internalType": "bool",
          "name": "enable",
          "type": "bool"
        }
      ],
      "name": "toggleAttester",
      "outputs": [],
      "stateMutability": "nonpayable",
      "type": "function"
    },
    {
      "inputs": [
        {
          "internalType": "address",
          "name": "newOwner",
          "type": "address"
        }
      ],
      "name": "transferOwnership",
      "outputs": [],
      "stateMutability": "nonpayable",
      "type": "function"
    },
    {
      "inputs": [],
      "name": "version",
      "outputs": [
        {
          "internalType": "string",
          "name": "",
          "type": "string"
        }
      ],
      "stateMutability": "view",
      "type": "function"
    }
  ],
  "transactionHash": "0x50ca9be157b3e3af2f8c5cdba81b25e2621f63ab232aab950c85e981916177a1",
  "args": [
    "0xaEF4103A04090071165F78D45D83A0C0782c2B2a"
  ],
  "numDeployments": 1,
  "solcInputHash": "dc1a338fa380d473251254f2598c5983",
  "bytecode": "0x6102006040523480156200001257600080fd5b5060405162002dee38038062002dee833981016040819052620000359162000292565b604080518082018252600d81526c417474657374657250726f787960981b602080830191909152825180840190935260058352640312e332e360dc1b908301526001608052600360a052600060c08190528392829162000097908390620001b7565b61018052620000a8816001620001b7565b6101a052815160208084019190912061014052815190820120610160524661010052620001396101405161016051604080517f8b73c3c69bb8fe3d512ecc4cf759cc79239f7b179b0ffacaa9a75d522b39400f60208201529081019290925260608201524660808201523060a082015260009060c00160405160208183030381529060405280519060200120905090565b60e052505030610120526001600160a01b0382166200016b576040516341bc07ff60e11b815260040160405180910390fd5b6001600160a01b0382166101c052600262000187828262000369565b505050620001a46200019e620001f060201b60201c565b620001f4565b6001600160a01b03166101e052620004aa565b6000602083511015620001d757620001cf8362000246565b9050620001ea565b81620001e4848262000369565b5060ff90505b92915050565b3390565b600580546001600160a01b038381166001600160a01b0319831681179093556040519116919082907f8be0079c531659141344cd1fd0a4f28419497f9722a3daafe3b4186f6b6457e090600090a35050565b600080829050601f815111156200027d578260405163305a27a960e01b815260040162000274919062000435565b60405180910390fd5b80516200028a8262000485565b179392505050565b600060208284031215620002a557600080fd5b81516001600160a01b0381168114620002bd57600080fd5b9392505050565b634e487b7160e01b600052604160045260246000fd5b600181811c90821680620002ef57607f821691505b6020821081036200031057634e487b7160e01b600052602260045260246000fd5b50919050565b601f8211156200036457600081815260208120601f850160051c810160208610156200033f5750805b601f850160051c820191505b8181101562000360578281556001016200034b565b5050505b505050565b81516001600160401b03811115620003855762000385620002c4565b6200039d81620003968454620002da565b8462000316565b602080601f831160018114620003d55760008415620003bc5750858301515b600019600386901b1c1916600185901b17855562000360565b600085815260208120601f198616915b828110156200040657888601518255948401946001909101908401620003e5565b5085821015620004255787850151600019600388901b60f8161c191681555b5050505050600190811b01905550565b600060208083528351808285015260005b81811015620004645785810183015185820160400152820162000446565b506000604082860101526040601f19601f8301168501019250505092915050565b80516020808301519190811015620003105760001960209190910360031b1b16919050565b60805160a05160c05160e05161010051610120516101405161016051610180516101a0516101c0516101e05161288f6200055f600039600081816107850152610dc9015260008181610257015281816105a901528181610b3c01528181610cd60152611115015260006108db015260006108b101526000611605015260006115dd01526000611538015260006115620152600061158c015260006108450152600061081c015260006107f3015261288f6000f3fe6080604052600436106101145760003560e01c8063715018a6116100a0578063b6ebe53911610064578063b6ebe53914610309578063b83010d314610349578063ed24911d1461037c578063f17325e714610391578063f2fde38b146103b157600080fd5b8063715018a61461027b57806384b0196e146102905780638da5cb5b146102b857806395411525146102d6578063a6d4dbc7146102f657600080fd5b806317d7de7c116100e757806317d7de7c146101de5780633c04271514610200578063469262671461021357806354fd4d501461023357806365c40b9c1461024857600080fd5b80630eabf660146101195780630ee489481461012e57806310d736d51461014e57806312b11a17146101a1575b600080fd5b61012c610127366004611b02565b6103d1565b005b34801561013a57600080fd5b5061012c610149366004611b6f565b610618565b34801561015a57600080fd5b50610184610169366004611ba2565b6000908152600360205260409020546001600160a01b031690565b6040516001600160a01b0390911681526020015b60405180910390f35b3480156101ad57600080fd5b507fea02ffba7dcb45f6fc649714d23f315eef12e3b27f9a7735d8d8bf41eb2b1af15b604051908152602001610198565b3480156101ea57600080fd5b506101f361064b565b6040516101989190611c0b565b6101d061020e366004611c25565b6106dd565b34801561021f57600080fd5b5061012c61022e366004611c5f565b610752565b34801561023f57600080fd5b506101f36107ec565b34801561025457600080fd5b507f0000000000000000000000000000000000000000000000000000000000000000610184565b34801561028757600080fd5b5061012c61088f565b34801561029c57600080fd5b506102a56108a3565b6040516101989796959493929190611c77565b3480156102c457600080fd5b506005546001600160a01b0316610184565b6102e96102e4366004611b02565b61092b565b6040516101989190611d0d565b61012c610304366004611d45565b610cbd565b34801561031557600080fd5b50610339610324366004611d58565b60066020526000908152604090205460ff1681565b6040519015158152602001610198565b34801561035557600080fd5b507f78a69a78c1a55cdff5cbf949580b410778cd9e4d1ecbe6f06a7fa8dc2441b57d6101d0565b34801561038857600080fd5b506101d0610d98565b34801561039d57600080fd5b506101d06103ac366004611d73565b610da7565b3480156103bd57600080fd5b5061012c6103cc366004611d58565b610e41565b806000816001600160401b038111156103ec576103ec611dad565b60405190808252806020026020018201604052801561043257816020015b60408051808201909152600081526060602082015281526020019060019003908161040a5790505b50905060005b8281101561059157600085858381811061045457610454611dc3565b90506020028101906104669190611dd9565b61046f90611fda565b602081015180519192509080158061048c57508260400151518114155b156104aa5760405163251f56a160e21b815260040160405180910390fd5b60005b818110156105465760008382815181106104c9576104c9611dc3565b6020026020010151905061053d6040518060a00160405280876000015181526020018381526020018760400151858151811061050757610507611dc3565b6020026020010151815260200187606001516001600160a01b0316815260200187608001516001600160401b0316815250610ebf565b506001016104ad565b506040518060400160405280846000015181526020018381525085858151811061057257610572611dc3565b602002602001018190525050505061058a8160010190565b9050610438565b50604051634cb7e9e560e01b81526001600160a01b037f00000000000000000000000000000000000000000000000000000000000000001690634cb7e9e59034906105e09085906004016120d4565b6000604051808303818588803b1580156105f957600080fd5b505af115801561060d573d6000803e3d6000fd5b505050505050505050565b61062061106b565b6001600160a01b03919091166000908152600660205260409020805460ff1916911515919091179055565b60606002805461065a90612185565b80601f016020809104026020016040519081016040528092919081815260200182805461068690612185565b80156106d35780601f106106a8576101008083540402835291602001916106d3565b820191906000526020600020905b8154815290600101906020018083116106b657829003601f168201915b5050505050905090565b60006106f76106f260c0840160a08501611d58565b6110c5565b61070460208301836121b9565b610712906020810190611d58565b6001600160a01b0316336001600160a01b03161461074357604051634ca8886760e01b815260040160405180910390fd5b61074c826110fe565b92915050565b61075b336110c5565b60408051634692626760e01b815282356004820152602083013560248201529082013560448201527f00000000000000000000000000000000000000000000000000000000000000006001600160a01b031690634692626790606401600060405180830381600087803b1580156107d157600080fd5b505af11580156107e5573d6000803e3d6000fd5b5050505050565b60606108177f0000000000000000000000000000000000000000000000000000000000000000611217565b6108407f0000000000000000000000000000000000000000000000000000000000000000611217565b6108697f0000000000000000000000000000000000000000000000000000000000000000611217565b60405160200161087b939291906121cf565b604051602081830303815290604052905090565b61089761106b565b6108a160006112a9565b565b6000606080828080836108d67f0000000000000000000000000000000000000000000000000000000000000000836112fb565b6109017f000000000000000000000000000000000000000000000000000000000000000060016112fb565b60408051600080825260208201909252600f60f81b9b939a50919850469750309650945092509050565b6060816000816001600160401b0381111561094857610948611dad565b60405190808252806020026020018201604052801561098e57816020015b6040805180820190915260008152606060208201528152602001906001900390816109665790505b50905060005b82811015610b3757368686838181106109af576109af611dc3565b90506020028101906109c19190611dd9565b90503660006109d36020840184612229565b9092509050808015806109f457506109ee6040850185612272565b90508114155b15610a125760405163251f56a160e21b815260040160405180910390fd5b60005b81811015610ae557610add6040518060a0016040528087600001358152602001868685818110610a4757610a47611dc3565b9050602002810190610a5991906121b9565b610a629061239f565b8152602001610a746040890189612272565b85818110610a8457610a84611dc3565b905060600201803603810190610a9a91906123ab565b8152602001610aaf6080890160608a01611d58565b6001600160a01b03168152602001610acd60a0890160808a016123c7565b6001600160401b031690526113a6565b600101610a15565b50604080518082019091528435815260208101610b0284866123e2565b815250868681518110610b1757610b17611dc3565b602002602001018190525050505050610b308160010190565b9050610994565b5060007f00000000000000000000000000000000000000000000000000000000000000006001600160a01b03166344adc90e34846040518363ffffffff1660e01b8152600401610b8791906124b9565b60006040518083038185885af1158015610ba5573d6000803e3d6000fd5b50505050506040513d6000823e601f3d908101601f19168201604052610bce9190810190612570565b90506000805b84811015610cb15736888883818110610bef57610bef611dc3565b9050602002810190610c019190611dd9565b9050366000610c136020840184612229565b90925090508060005b81811015610c9b57610c346080860160608701611d58565b600360008a8a81518110610c4a57610c4a611dc3565b6020026020010151815260200190815260200160002060006101000a8154816001600160a01b0302191690836001600160a01b03160217905550866001019650610c948160010190565b9050610c1c565b5050505050610caa8160010190565b9050610bd4565b50909695505050505050565b610cd4610ccf36839003830183612600565b610ebf565b7f00000000000000000000000000000000000000000000000000000000000000006001600160a01b031663469262673460405180604001604052808560000135815260200185602001803603810190610d2d919061266c565b90526040516001600160e01b031960e085901b16815281516004820152602091820151805160248301529091015160448201526064016000604051808303818588803b158015610d7c57600080fd5b505af1158015610d90573d6000803e3d6000fd5b505050505050565b6000610da261152b565b905090565b6000610db2336110c5565b60405163f17325e760e01b81526001600160a01b037f0000000000000000000000000000000000000000000000000000000000000000169063f17325e790610dfe9085906004016126b1565b6020604051808303816000875af1158015610e1d573d6000803e3d6000fd5b505050506040513d601f19601f8201168201806040525081019061074c919061279c565b610e4961106b565b6001600160a01b038116610eb35760405162461bcd60e51b815260206004820152602660248201527f4f776e61626c653a206e6577206f776e657220697320746865207a65726f206160448201526564647265737360d01b60648201526084015b60405180910390fd5b610ebc816112a9565b50565b60808101516001600160401b031615801590610ef05750426001600160401b031681608001516001600160401b0316105b15610f0e57604051631ab7da6b60e01b815260040160405180910390fd5b6020808201518051600090815260039092526040909120546001600160a01b031680610f4d5760405163c5723b5160e01b815260040160405180910390fd5b6001600160a01b0381163314610f7657604051634ca8886760e01b815260040160405180910390fd5b6040830151610f8481611656565b606080850151855185516020808801516080808b0151604080517f78a69a78c1a55cdff5cbf949580b410778cd9e4d1ecbe6f06a7fa8dc2441b57d958101959095526001600160a01b0390971696840196909652958201939093529384015260a08301526001600160401b031660c082015260009061101c9060e0015b60405160208183030381529060405280519060200120611715565b905084606001516001600160a01b031661104482846000015185602001518660400151611742565b6001600160a01b0316146107e557604051638baa579f60e01b815260040160405180910390fd5b6005546001600160a01b031633146108a15760405162461bcd60e51b815260206004820181905260248201527f4f776e61626c653a2063616c6c6572206973206e6f7420746865206f776e65726044820152606401610eaa565b6001600160a01b03811660009081526006602052604090205460ff16610ebc57604051634ca8886760e01b815260040160405180910390fd5b600061111161110c836127b5565b6113a6565b60007f00000000000000000000000000000000000000000000000000000000000000006001600160a01b031663f17325e73460405180604001604052808760000135815260200187806020019061116891906121b9565b6111719061239f565b8152506040518363ffffffff1660e01b8152600401611190919061282d565b60206040518083038185885af11580156111ae573d6000803e3d6000fd5b50505050506040513d601f19601f820116820180604052508101906111d3919061279c565b90506111e560c0840160a08501611d58565b600082815260036020526040902080546001600160a01b0319166001600160a01b039290921691909117905592915050565b606060006112248361176a565b60010190506000816001600160401b0381111561124357611243611dad565b6040519080825280601f01601f19166020018201604052801561126d576020820181803683370190505b5090508181016020015b600019016f181899199a1a9b1b9c1cb0b131b232b360811b600a86061a8153600a850494508461127757509392505050565b600580546001600160a01b038381166001600160a01b0319831681179093556040519116919082907f8be0079c531659141344cd1fd0a4f28419497f9722a3daafe3b4186f6b6457e090600090a35050565b606060ff83146113155761130e83611842565b905061074c565b81805461132190612185565b80601f016020809104026020016040519081016040528092919081815260200182805461134d90612185565b801561139a5780601f1061136f5761010080835404028352916020019161139a565b820191906000526020600020905b81548152906001019060200180831161137d57829003601f168201915b5050505050905061074c565b60808101516001600160401b0316158015906113d75750426001600160401b031681608001516001600160401b0316105b156113f557604051631ab7da6b60e01b815260040160405180910390fd5b6020810151604082015161140881611656565b60006114d67fea02ffba7dcb45f6fc649714d23f315eef12e3b27f9a7735d8d8bf41eb2b1af160001b8560600151866000015186600001518760200151886040015189606001518a60800151805190602001208b60a001518d608001516040516020016110019a99989796959493929190998a526001600160a01b0398891660208b015260408a01979097529490961660608801526001600160401b03928316608088015290151560a087015260c086015260e0850193909352610100840152166101208201526101400190565b905083606001516001600160a01b03166114fe82846000015185602001518660400151611742565b6001600160a01b03161461152557604051638baa579f60e01b815260040160405180910390fd5b50505050565b6000306001600160a01b037f00000000000000000000000000000000000000000000000000000000000000001614801561158457507f000000000000000000000000000000000000000000000000000000000000000046145b156115ae57507f000000000000000000000000000000000000000000000000000000000000000090565b610da2604080517f8b73c3c69bb8fe3d512ecc4cf759cc79239f7b179b0ffacaa9a75d522b39400f60208201527f0000000000000000000000000000000000000000000000000000000000000000918101919091527f000000000000000000000000000000000000000000000000000000000000000060608201524660808201523060a082015260009060c00160405160208183030381529060405280519060200120905090565b8051602080830151604080850151905160f89490941b6001600160f81b031916928401929092526021830152604182015260009060610160405160208183030381529060405290506004816040516116ae919061285a565b9081526040519081900360200190205460ff16156116df5760405163333a6a0960e21b815260040160405180910390fd5b60016004826040516116f1919061285a565b908152604051908190036020019020805491151560ff199092169190911790555050565b600061074c61172261152b565b8360405161190160f01b8152600281019290925260228201526042902090565b600080600061175387878787611881565b9150915061176081611945565b5095945050505050565b60008072184f03e93ff9f4daa797ed6e38ed64bf6a1f0160401b83106117a95772184f03e93ff9f4daa797ed6e38ed64bf6a1f0160401b830492506040015b6d04ee2d6d415b85acef810000000083106117d5576d04ee2d6d415b85acef8100000000830492506020015b662386f26fc1000083106117f357662386f26fc10000830492506010015b6305f5e100831061180b576305f5e100830492506008015b612710831061181f57612710830492506004015b60648310611831576064830492506002015b600a831061074c5760010192915050565b6060600061184f83611a8f565b604080516020808252818301909252919250600091906020820181803683375050509182525060208101929092525090565b6000807f7fffffffffffffffffffffffffffffff5d576e7357a4501ddfe92f46681b20a08311156118b8575060009050600361193c565b6040805160008082526020820180845289905260ff881692820192909252606081018690526080810185905260019060a0016020604051602081039080840390855afa15801561190c573d6000803e3d6000fd5b5050604051601f1901519150506001600160a01b0381166119355760006001925092505061193c565b9150600090505b94509492505050565b60008160048111156119595761195961286c565b036119615750565b60018160048111156119755761197561286c565b036119c25760405162461bcd60e51b815260206004820152601860248201527f45434453413a20696e76616c6964207369676e617475726500000000000000006044820152606401610eaa565b60028160048111156119d6576119d661286c565b03611a235760405162461bcd60e51b815260206004820152601f60248201527f45434453413a20696e76616c6964207369676e6174757265206c656e677468006044820152606401610eaa565b6003816004811115611a3757611a3761286c565b03610ebc5760405162461bcd60e51b815260206004820152602260248201527f45434453413a20696e76616c6964207369676e6174757265202773272076616c604482015261756560f01b6064820152608401610eaa565b600060ff8216601f81111561074c57604051632cd44ac360e21b815260040160405180910390fd5b60008083601f840112611ac957600080fd5b5081356001600160401b03811115611ae057600080fd5b6020830191508360208260051b8501011115611afb57600080fd5b9250929050565b60008060208385031215611b1557600080fd5b82356001600160401b03811115611b2b57600080fd5b611b3785828601611ab7565b90969095509350505050565b80356001600160a01b0381168114611b5a57600080fd5b919050565b80358015158114611b5a57600080fd5b60008060408385031215611b8257600080fd5b611b8b83611b43565b9150611b9960208401611b5f565b90509250929050565b600060208284031215611bb457600080fd5b5035919050565b60005b83811015611bd6578181015183820152602001611bbe565b50506000910152565b60008151808452611bf7816020860160208601611bbb565b601f01601f19169290920160200192915050565b602081526000611c1e6020830184611bdf565b9392505050565b600060208284031215611c3757600080fd5b81356001600160401b03811115611c4d57600080fd5b820160e08185031215611c1e57600080fd5b600060608284031215611c7157600080fd5b50919050565b60ff60f81b881681526000602060e081840152611c9760e084018a611bdf565b8381036040850152611ca9818a611bdf565b606085018990526001600160a01b038816608086015260a0850187905284810360c0860152855180825283870192509083019060005b81811015611cfb57835183529284019291840191600101611cdf565b50909c9b505050505050505050505050565b6020808252825182820181905260009190848201906040850190845b81811015610cb157835183529284019291840191600101611d29565b60006101008284031215611c7157600080fd5b600060208284031215611d6a57600080fd5b611c1e82611b43565b600060208284031215611d8557600080fd5b81356001600160401b03811115611d9b57600080fd5b820160408185031215611c1e57600080fd5b634e487b7160e01b600052604160045260246000fd5b634e487b7160e01b600052603260045260246000fd5b60008235609e19833603018112611def57600080fd5b9190910192915050565b60405160a081016001600160401b0381118282101715611e1b57611e1b611dad565b60405290565b60405160c081016001600160401b0381118282101715611e1b57611e1b611dad565b604051601f8201601f191681016001600160401b0381118282101715611e6b57611e6b611dad565b604052919050565b60006001600160401b03821115611e8c57611e8c611dad565b5060051b60200190565b600060408284031215611ea857600080fd5b604051604081018181106001600160401b0382111715611eca57611eca611dad565b604052823581526020928301359281019290925250919050565b600060608284031215611ef657600080fd5b604051606081018181106001600160401b0382111715611f1857611f18611dad565b604052905080823560ff81168114611f2f57600080fd5b8082525060208301356020820152604083013560408201525092915050565b600082601f830112611f5f57600080fd5b81356020611f74611f6f83611e73565b611e43565b82815260609283028501820192828201919087851115611f9357600080fd5b8387015b85811015611fb657611fa98982611ee4565b8452928401928101611f97565b5090979650505050505050565b80356001600160401b0381168114611b5a57600080fd5b600060a08236031215611fec57600080fd5b611ff4611df9565b823581526020808401356001600160401b038082111561201357600080fd5b9085019036601f83011261202657600080fd5b8135612034611f6f82611e73565b81815260069190911b8301840190848101903683111561205357600080fd5b938501935b8285101561207c5761206a3686611e96565b82528582019150604085019450612058565b8086880152505050604086013592508083111561209857600080fd5b50506120a636828601611f4e565b6040830152506120b860608401611b43565b60608201526120c960808401611fc3565b608082015292915050565b60006020808301818452808551808352604092508286019150828160051b8701018488016000805b8481101561217657898403603f19018652825180518552880151888501889052805188860181905290890190839060608701905b808310156121615761214d82855180518252602090810151910152565b928b019260019290920191908a0190612130565b50978a019795505050918701916001016120fc565b50919998505050505050505050565b600181811c9082168061219957607f821691505b602082108103611c7157634e487b7160e01b600052602260045260246000fd5b6000823560be19833603018112611def57600080fd5b600084516121e1818460208901611bbb565b8083019050601760f91b8082528551612201816001850160208a01611bbb565b6001920191820152835161221c816002840160208801611bbb565b0160020195945050505050565b6000808335601e1984360301811261224057600080fd5b8301803591506001600160401b0382111561225a57600080fd5b6020019150600581901b3603821315611afb57600080fd5b6000808335601e1984360301811261228957600080fd5b8301803591506001600160401b038211156122a357600080fd5b6020019150606081023603821315611afb57600080fd5b600060c082840312156122cc57600080fd5b6122d4611e21565b90506122df82611b43565b815260206122ee818401611fc3565b818301526122fe60408401611b5f565b60408301526060830135606083015260808301356001600160401b038082111561232757600080fd5b818501915085601f83011261233b57600080fd5b81358181111561234d5761234d611dad565b61235f601f8201601f19168501611e43565b9150808252868482850101111561237557600080fd5b808484018584013760008482840101525080608085015250505060a082013560a082015292915050565b600061074c36836122ba565b6000606082840312156123bd57600080fd5b611c1e8383611ee4565b6000602082840312156123d957600080fd5b611c1e82611fc3565b60006123f0611f6f84611e73565b80848252602080830192508560051b85013681111561240e57600080fd5b855b818110156124495780356001600160401b0381111561242f5760008081fd5b61243b36828a016122ba565b865250938201938201612410565b50919695505050505050565b60018060a01b0381511682526001600160401b036020820151166020830152604081015115156040830152606081015160608301526000608082015160c060808501526124a560c0850182611bdf565b60a093840151949093019390935250919050565b602080825282518282018190526000919060409081850190600581811b8701840188860187805b8581101561256057603f198b85030187528251805185528901518985018990528051898601819052908a0190606081881b870181019190870190855b8181101561254a57605f19898503018352612538848651612455565b948e01949350918d019160010161251c565b505050978a0197945050918801916001016124e0565b50919a9950505050505050505050565b6000602080838503121561258357600080fd5b82516001600160401b0381111561259957600080fd5b8301601f810185136125aa57600080fd5b80516125b8611f6f82611e73565b81815260059190911b820183019083810190878311156125d757600080fd5b928401925b828410156125f5578351825292840192908401906125dc565b979650505050505050565b6000610100828403121561261357600080fd5b61261b611df9565b8235815261262c8460208501611e96565b602082015261263e8460608501611ee4565b604082015261264f60c08401611b43565b606082015261266060e08401611fc3565b60808201529392505050565b60006040828403121561267e57600080fd5b611c1e8383611e96565b81835281816020850137506000828201602090810191909152601f909101601f19169091010190565b60208152813560208201526000602083013560be198436030181126126d557600080fd5b60408381015283016001600160a01b036126ee82611b43565b16606084015261270060208201611fc3565b6001600160401b03808216608086015261271c60408401611b5f565b151560a0860152606083013560c086015260808301359150601e1983360301821261274657600080fd5b602091830191820191358181111561275d57600080fd5b80360383131561276c57600080fd5b60c060e087015261278261012087018285612688565b9250505060a0820135610100850152809250505092915050565b6000602082840312156127ae57600080fd5b5051919050565b600060e082360312156127c757600080fd5b6127cf611df9565b8235815260208301356001600160401b038111156127ec57600080fd5b6127f8368286016122ba565b60208301525061280b3660408501611ee4565b604082015261281c60a08401611b43565b60608201526120c960c08401611fc3565b6020815281516020820152600060208301516040808401526128526060840182612455565b949350505050565b60008251611def818460208701611bbb565b634e487b7160e01b600052602160045260246000fdfea164736f6c6343000813000a",
  "devdoc": {
    "events": {
      "EIP712DomainChanged()": {
        "details": "MAY be emitted to signal that the domain could have changed."
      }
    },
    "kind": "dev",
    "methods": {
      "attest((bytes32,(address,uint64,bool,bytes32,bytes,uint256)))": {
        "params": {
          "request": "The arguments of the attestation request."
        },
        "returns": {
          "_0": "The UID of the new attestation."
        }
      },
      "attestByDelegation((bytes32,(address,uint64,bool,bytes32,bytes,uint256),(uint8,bytes32,bytes32),address,uint64))": {
        "params": {
          "delegatedRequest": "The arguments of the delegated attestation request."
        },
        "returns": {
          "_0": "The UID of the new attestation. Example:     attestByDelegation({         schema: '0x8e72f5bc0a8d4be6aa98360baa889040c50a0e51f32dbf0baa5199bd93472ebc',         data: {             recipient: '0xf39Fd6e51aad88F6F4ce6aB8827279cffFb92266',             expirationTime: 1673891048,             revocable: true,             refUID: '0x0000000000000000000000000000000000000000000000000000000000000000',             data: '0x1234',             value: 0         },         signature: {             v: 28,             r: '0x148c...b25b',             s: '0x5a72...be22'         },         attester: '0xc5E8740aD971409492b1A63Db8d83025e0Fc427e',         deadline: 1673891048     })"
        }
      },
      "constructor": {
        "details": "Creates a new PermissionedEIP712Proxy instance.",
        "params": {
          "eas": "The address of the global EAS contract."
        }
      },
      "eip712Domain()": {
        "details": "See {EIP-5267}. _Available since v4.9._"
      },
      "multiAttestByDelegation((bytes32,(address,uint64,bool,bytes32,bytes,uint256)[],(uint8,bytes32,bytes32)[],address,uint64)[])": {
        "params": {
          "multiDelegatedRequests": "The arguments of the delegated multi attestation requests. The requests should be     grouped by distinct schema ids to benefit from the best batching optimization."
        },
        "returns": {
          "_0": "The UIDs of the new attestations. Example:     multiAttestByDelegation([{         schema: '0x8e72f5bc0a8d4be6aa98360baa889040c50a0e51f32dbf0baa5199bd93472ebc',         data: [{             recipient: '0xf39Fd6e51aad88F6F4ce6aB8827279cffFb92266',             expirationTime: 1673891048,             revocable: true,             refUID: '0x0000000000000000000000000000000000000000000000000000000000000000',             data: '0x1234',             value: 0         },         {             recipient: '0xdEADBeAFdeAdbEafdeadbeafDeAdbEAFdeadbeaf',             expirationTime: 0,             revocable: false,             refUID: '0x0000000000000000000000000000000000000000000000000000000000000000',             data: '0x00',             value: 0         }],         signatures: [{             v: 28,             r: '0x148c...b25b',             s: '0x5a72...be22'         },         {             v: 28,             r: '0x487s...67bb',             s: '0x12ad...2366'         }],         attester: '0x1D86495b2A7B524D747d2839b3C645Bed32e8CF4',         deadline: 1673891048     }])"
        }
      },
      "multiRevokeByDelegation((bytes32,(bytes32,uint256)[],(uint8,bytes32,bytes32)[],address,uint64)[])": {
        "params": {
          "multiDelegatedRequests": "The arguments of the delegated multi revocation attestation requests. The requests     should be grouped by distinct schema ids to benefit from the best batching optimization. Example:     multiRevokeByDelegation([{         schema: '0x8e72f5bc0a8d4be6aa98360baa889040c50a0e51f32dbf0baa5199bd93472ebc',         data: [{             uid: '0x211296a1ca0d7f9f2cfebf0daaa575bea9b20e968d81aef4e743d699c6ac4b25',             value: 1000         },         {             uid: '0xe160ac1bd3606a287b4d53d5d1d6da5895f65b4b4bab6d93aaf5046e48167ade',             value: 0         }],         signatures: [{             v: 28,             r: '0x148c...b25b',             s: '0x5a72...be22'         },         {             v: 28,             r: '0x487s...67bb',             s: '0x12ad...2366'         }],         revoker: '0x244934dd3e31bE2c81f84ECf0b3E6329F5381992',         deadline: 1673891048     }])"
        }
      },
      "owner()": {
        "details": "Returns the address of the current owner."
      },
      "renounceOwnership()": {
        "details": "Leaves the contract without owner. It will not be possible to call `onlyOwner` functions. Can only be called by the current owner. NOTE: Renouncing ownership will leave the contract without an owner, thereby disabling any functionality that is only available to the owner."
      },
      "revoke((bytes32,(bytes32,uint256)))": {
        "params": {
          "request": "The arguments of the revocation request."
        }
      },
      "revokeByDelegation((bytes32,(bytes32,uint256),(uint8,bytes32,bytes32),address,uint64))": {
        "params": {
          "delegatedRequest": "The arguments of the delegated revocation request. Example:     revokeByDelegation({         schema: '0x8e72f5bc0a8d4be6aa98360baa889040c50a0e51f32dbf0baa5199bd93472ebc',         data: {             uid: '0xcbbc12102578c642a0f7b34fe7111e41afa25683b6cd7b5a14caf90fa14d24ba',             value: 0         },         signature: {             v: 27,             r: '0xb593...7142',             s: '0x0f5b...2cce'         },         revoker: '0x244934dd3e31bE2c81f84ECf0b3E6329F5381992',         deadline: 1673891048     })"
        }
      },
      "toggleAttester(address,bool)": {
        "params": {
          "attester": "The attester address.",
          "enable": "True if enable, false if disable."
        }
      },
      "transferOwnership(address)": {
        "details": "Transfers ownership of the contract to a new account (`newOwner`). Can only be called by the current owner."
      },
      "version()": {
        "returns": {
          "_0": "Semver contract version as a string."
        }
      }
    },
    "title": "AttesterProxy",
    "version": 1
  },
  "userdoc": {
    "kind": "user",
    "methods": {
      "attest((bytes32,(address,uint64,bool,bytes32,bytes,uint256)))": {
        "notice": "Create attestation through the proxy."
      },
      "attestByDelegation((bytes32,(address,uint64,bool,bytes32,bytes,uint256),(uint8,bytes32,bytes32),address,uint64))": {
        "notice": "Attests to a specific schema via the provided EIP712 signature."
      },
      "getAttestTypeHash()": {
        "notice": "Returns the EIP712 type hash for the attest function."
      },
      "getAttester(bytes32)": {
        "notice": "Returns the attester for a given uid."
      },
      "getDomainSeparator()": {
        "notice": "Returns the domain separator used in the encoding of the signatures for attest, and revoke."
      },
      "getEAS()": {
        "notice": "Returns the EAS."
      },
      "getName()": {
        "notice": "Returns the EIP712 name."
      },
      "getRevokeTypeHash()": {
        "notice": "Returns the EIP712 type hash for the revoke function."
      },
      "multiAttestByDelegation((bytes32,(address,uint64,bool,bytes32,bytes,uint256)[],(uint8,bytes32,bytes32)[],address,uint64)[])": {
        "notice": "Attests to multiple schemas using via provided EIP712 signatures."
      },
      "multiRevokeByDelegation((bytes32,(bytes32,uint256)[],(uint8,bytes32,bytes32)[],address,uint64)[])": {
        "notice": "Revokes existing attestations to multiple schemas via provided EIP712 signatures."
      },
      "revoke((bytes32,(bytes32,uint256)))": {
        "notice": "Revoke attestation through the proxy."
      },
      "revokeByDelegation((bytes32,(bytes32,uint256),(uint8,bytes32,bytes32),address,uint64))": {
        "notice": "Revokes an existing attestation to a specific schema via the provided EIP712 signature."
      },
      "toggleAttester(address,bool)": {
        "notice": "Enables or disables a given attester."
      },
      "version()": {
        "notice": "Returns the full semver contract version."
      }
    },
    "notice": "An EIP712 proxy that allows only specific addresses to attest.         Based on PermissionedEIP712Proxy in the EAS repo.",
    "version": 1
  },
  "storageLayout": {
    "storage": [
      {
        "astId": 3297,
        "contract": "contracts/utils/AttesterProxy.sol:AttesterProxy",
        "label": "_nameFallback",
        "offset": 0,
        "slot": "0",
        "type": "t_string_storage"
      },
      {
        "astId": 3299,
        "contract": "contracts/utils/AttesterProxy.sol:AttesterProxy",
        "label": "_versionFallback",
        "offset": 0,
        "slot": "1",
        "type": "t_string_storage"
      },
      {
        "astId": 1367,
        "contract": "contracts/utils/AttesterProxy.sol:AttesterProxy",
        "label": "_name",
        "offset": 0,
        "slot": "2",
        "type": "t_string_storage"
      },
      {
        "astId": 1371,
        "contract": "contracts/utils/AttesterProxy.sol:AttesterProxy",
        "label": "_attesters",
        "offset": 0,
        "slot": "3",
        "type": "t_mapping(t_bytes32,t_address)"
      },
      {
        "astId": 1375,
        "contract": "contracts/utils/AttesterProxy.sol:AttesterProxy",
        "label": "_signatures",
        "offset": 0,
        "slot": "4",
        "type": "t_mapping(t_bytes_memory_ptr,t_bool)"
      },
      {
        "astId": 2183,
        "contract": "contracts/utils/AttesterProxy.sol:AttesterProxy",
        "label": "_owner",
        "offset": 0,
        "slot": "5",
        "type": "t_address"
      },
      {
        "astId": 4945,
        "contract": "contracts/utils/AttesterProxy.sol:AttesterProxy",
        "label": "isAttester",
        "offset": 0,
        "slot": "6",
        "type": "t_mapping(t_address,t_bool)"
      }
    ],
    "types": {
      "t_address": {
        "encoding": "inplace",
        "label": "address",
        "numberOfBytes": "20"
      },
      "t_bool": {
        "encoding": "inplace",
        "label": "bool",
        "numberOfBytes": "1"
      },
      "t_bytes32": {
        "encoding": "inplace",
        "label": "bytes32",
        "numberOfBytes": "32"
      },
      "t_bytes_memory_ptr": {
        "encoding": "bytes",
        "label": "bytes",
        "numberOfBytes": "32"
      },
      "t_mapping(t_address,t_bool)": {
        "encoding": "mapping",
        "key": "t_address",
        "label": "mapping(address => bool)",
        "numberOfBytes": "32",
        "value": "t_bool"
      },
      "t_mapping(t_bytes32,t_address)": {
        "encoding": "mapping",
        "key": "t_bytes32",
        "label": "mapping(bytes32 => address)",
        "numberOfBytes": "32",
        "value": "t_address"
      },
      "t_mapping(t_bytes_memory_ptr,t_bool)": {
        "encoding": "mapping",
        "key": "t_bytes_memory_ptr",
        "label": "mapping(bytes => bool)",
        "numberOfBytes": "32",
        "value": "t_bool"
      },
      "t_string_storage": {
        "encoding": "bytes",
        "label": "string",
        "numberOfBytes": "32"
      }
    }
  }
}