{
  "address": "0xfbC9dc7B0A9Aba5afa46aDfd0205C0660e1F8aae",
  "abi": [
    {
      "inputs": [
        {
          "internalType": "address",
          "name": "resolver_",
          "type": "address"
        },
        {
          "internalType": "address",
          "name": "activityPoints_",
          "type": "address"
        },
        {
          "internalType": "string",
          "name": "_defaultBadgeURI",
          "type": "string"
        },
        {
          "internalType": "string",
          "name": "_baseBadgeURI",
          "type": "string"
        }
      ],
      "stateMutability": "nonpayable",
      "type": "constructor"
    },
    {
      "inputs": [
        {
          "internalType": "bytes32",
          "name": "uid",
          "type": "bytes32"
        }
      ],
      "name": "AttestationBadgeMismatch",
      "type": "error"
    },
    {
      "inputs": [],
      "name": "ExpirationDisabled",
      "type": "error"
    },
    {
      "inputs": [],
      "name": "SingletonBadge",
      "type": "error"
    },
    {
      "inputs": [],
      "name": "Unauthorized",
      "type": "error"
    },
    {
      "anonymous": false,
      "inputs": [
        {
          "indexed": true,
          "internalType": "bytes32",
          "name": "uid",
          "type": "bytes32"
        }
      ],
      "name": "IssueBadge",
      "type": "event"
    },
    {
      "anonymous": false,
      "inputs": [
        {
          "indexed": true,
          "internalType": "address",
          "name": "previousOwner",
          "type": "address"
        },
        {
          "indexed": true,
          "internalType": "address",
          "name": "newOwner",
          "type": "address"
        }
      ],
      "name": "OwnershipTransferred",
      "type": "event"
    },
    {
      "anonymous": false,
      "inputs": [
        {
          "indexed": true,
          "internalType": "bytes32",
          "name": "uid",
          "type": "bytes32"
        }
      ],
      "name": "RevokeBadge",
      "type": "event"
    },
    {
      "inputs": [],
      "name": "MINIMUM_POINTS_ELIGIBILITY",
      "outputs": [
        {
          "internalType": "uint256",
          "name": "",
          "type": "uint256"
        }
      ],
      "stateMutability": "view",
      "type": "function"
    },
    {
      "inputs": [],
      "name": "MINIMUM_POINTS_LEVEL_2",
      "outputs": [
        {
          "internalType": "uint256",
          "name": "",
          "type": "uint256"
        }
      ],
      "stateMutability": "view",
      "type": "function"
    },
    {
      "inputs": [],
      "name": "MINIMUM_POINTS_LEVEL_3",
      "outputs": [
        {
          "internalType": "uint256",
          "name": "",
          "type": "uint256"
        }
      ],
      "stateMutability": "view",
      "type": "function"
    },
    {
      "inputs": [],
      "name": "MINIMUM_POINTS_LEVEL_4",
      "outputs": [
        {
          "internalType": "uint256",
          "name": "",
          "type": "uint256"
        }
      ],
      "stateMutability": "view",
      "type": "function"
    },
    {
      "inputs": [],
      "name": "MINIMUM_POINTS_LEVEL_5",
      "outputs": [
        {
          "internalType": "uint256",
          "name": "",
          "type": "uint256"
        }
      ],
      "stateMutability": "view",
      "type": "function"
    },
    {
      "inputs": [],
      "name": "MINIMUM_POINTS_LEVEL_6",
      "outputs": [
        {
          "internalType": "uint256",
          "name": "",
          "type": "uint256"
        }
      ],
      "stateMutability": "view",
      "type": "function"
    },
    {
      "inputs": [
        {
          "internalType": "bytes32",
          "name": "uid",
          "type": "bytes32"
        }
      ],
      "name": "badgeTokenURI",
      "outputs": [
        {
          "internalType": "string",
          "name": "",
          "type": "string"
        }
      ],
      "stateMutability": "view",
      "type": "function"
    },
    {
      "inputs": [],
      "name": "baseBadgeURI",
      "outputs": [
        {
          "internalType": "string",
          "name": "",
          "type": "string"
        }
      ],
      "stateMutability": "view",
      "type": "function"
    },
    {
      "inputs": [],
      "name": "defaultBadgeURI",
      "outputs": [
        {
          "internalType": "string",
          "name": "",
          "type": "string"
        }
      ],
      "stateMutability": "view",
      "type": "function"
    },
    {
      "inputs": [
        {
          "internalType": "uint256",
          "name": "points",
          "type": "uint256"
        }
      ],
      "name": "determineBadgeLevel",
      "outputs": [
        {
          "internalType": "uint8",
          "name": "",
          "type": "uint8"
        }
      ],
      "stateMutability": "pure",
      "type": "function"
    },
    {
      "inputs": [
        {
          "internalType": "bytes32",
          "name": "uid",
          "type": "bytes32"
        }
      ],
      "name": "getAndValidateBadge",
      "outputs": [
        {
          "components": [
            {
              "internalType": "bytes32",
              "name": "uid",
              "type": "bytes32"
            },
            {
              "internalType": "bytes32",
              "name": "schema",
              "type": "bytes32"
            },
            {
              "internalType": "uint64",
              "name": "time",
              "type": "uint64"
            },
            {
              "internalType": "uint64",
              "name": "expirationTime",
              "type": "uint64"
            },
            {
              "internalType": "uint64",
              "name": "revocationTime",
              "type": "uint64"
            },
            {
              "internalType": "bytes32",
              "name": "refUID",
              "type": "bytes32"
            },
            {
              "internalType": "address",
              "name": "recipient",
              "type": "address"
            },
            {
              "internalType": "address",
              "name": "attester",
              "type": "address"
            },
            {
              "internalType": "bool",
              "name": "revocable",
              "type": "bool"
            },
            {
              "internalType": "bytes",
              "name": "data",
              "type": "bytes"
            }
          ],
          "internalType": "struct Attestation",
          "name": "",
          "type": "tuple"
        }
      ],
      "stateMutability": "view",
      "type": "function"
    },
    {
      "inputs": [
        {
          "internalType": "bytes32",
          "name": "uid",
          "type": "bytes32"
        }
      ],
      "name": "getCurrentLevel",
      "outputs": [
        {
          "internalType": "uint8",
          "name": "",
          "type": "uint8"
        }
      ],
      "stateMutability": "view",
      "type": "function"
    },
    {
      "inputs": [
        {
          "internalType": "address",
          "name": "recipient",
          "type": "address"
        }
      ],
      "name": "getLevel",
      "outputs": [
        {
          "internalType": "uint8",
          "name": "",
          "type": "uint8"
        }
      ],
      "stateMutability": "view",
      "type": "function"
    },
    {
      "inputs": [
        {
          "internalType": "address",
          "name": "recipient",
          "type": "address"
        }
      ],
      "name": "getPoints",
      "outputs": [
        {
          "internalType": "uint256",
          "name": "",
          "type": "uint256"
        }
      ],
      "stateMutability": "view",
      "type": "function"
    },
    {
      "inputs": [
        {
          "internalType": "address",
          "name": "user",
          "type": "address"
        }
      ],
      "name": "hasBadge",
      "outputs": [
        {
          "internalType": "bool",
          "name": "",
          "type": "bool"
        }
      ],
      "stateMutability": "view",
      "type": "function"
    },
    {
      "inputs": [
        {
          "internalType": "address",
          "name": "",
          "type": "address"
        }
      ],
      "name": "isAttester",
      "outputs": [
        {
          "internalType": "bool",
          "name": "",
          "type": "bool"
        }
      ],
      "stateMutability": "view",
      "type": "function"
    },
    {
      "inputs": [
        {
          "internalType": "address",
          "name": "recipient",
          "type": "address"
        }
      ],
      "name": "isEligible",
      "outputs": [
        {
          "internalType": "bool",
          "name": "",
          "type": "bool"
        }
      ],
      "stateMutability": "view",
      "type": "function"
    },
    {
      "inputs": [
        {
          "components": [
            {
              "internalType": "bytes32",
              "name": "uid",
              "type": "bytes32"
            },
            {
              "internalType": "bytes32",
              "name": "schema",
              "type": "bytes32"
            },
            {
              "internalType": "uint64",
              "name": "time",
              "type": "uint64"
            },
            {
              "internalType": "uint64",
              "name": "expirationTime",
              "type": "uint64"
            },
            {
              "internalType": "uint64",
              "name": "revocationTime",
              "type": "uint64"
            },
            {
              "internalType": "bytes32",
              "name": "refUID",
              "type": "bytes32"
            },
            {
              "internalType": "address",
              "name": "recipient",
              "type": "address"
            },
            {
              "internalType": "address",
              "name": "attester",
              "type": "address"
            },
            {
              "internalType": "bool",
              "name": "revocable",
              "type": "bool"
            },
            {
              "internalType": "bytes",
              "name": "data",
              "type": "bytes"
            }
          ],
          "internalType": "struct Attestation",
          "name": "attestation",
          "type": "tuple"
        }
      ],
      "name": "issueBadge",
      "outputs": [
        {
          "internalType": "bool",
          "name": "",
          "type": "bool"
        }
      ],
      "stateMutability": "nonpayable",
      "type": "function"
    },
    {
      "inputs": [],
      "name": "owner",
      "outputs": [
        {
          "internalType": "address",
          "name": "",
          "type": "address"
        }
      ],
      "stateMutability": "view",
      "type": "function"
    },
    {
      "inputs": [],
      "name": "renounceOwnership",
      "outputs": [],
      "stateMutability": "nonpayable",
      "type": "function"
    },
    {
      "inputs": [],
      "name": "resolver",
      "outputs": [
        {
          "internalType": "address",
          "name": "",
          "type": "address"
        }
      ],
      "stateMutability": "view",
      "type": "function"
    },
    {
      "inputs": [
        {
          "components": [
            {
              "internalType": "bytes32",
              "name": "uid",
              "type": "bytes32"
            },
            {
              "internalType": "bytes32",
              "name": "schema",
              "type": "bytes32"
            },
            {
              "internalType": "uint64",
              "name": "time",
              "type": "uint64"
            },
            {
              "internalType": "uint64",
              "name": "expirationTime",
              "type": "uint64"
            },
            {
              "internalType": "uint64",
              "name": "revocationTime",
              "type": "uint64"
            },
            {
              "internalType": "bytes32",
              "name": "refUID",
              "type": "bytes32"
            },
            {
              "internalType": "address",
              "name": "recipient",
              "type": "address"
            },
            {
              "internalType": "address",
              "name": "attester",
              "type": "address"
            },
            {
              "internalType": "bool",
              "name": "revocable",
              "type": "bool"
            },
            {
              "internalType": "bytes",
              "name": "data",
              "type": "bytes"
            }
          ],
          "internalType": "struct Attestation",
          "name": "attestation",
          "type": "tuple"
        }
      ],
      "name": "revokeBadge",
      "outputs": [
        {
          "internalType": "bool",
          "name": "",
          "type": "bool"
        }
      ],
      "stateMutability": "nonpayable",
      "type": "function"
    },
    {
      "inputs": [
        {
          "internalType": "string",
          "name": "_baseBadgeURI",
          "type": "string"
        }
      ],
      "name": "setBaseBadgeURI",
      "outputs": [],
      "stateMutability": "nonpayable",
      "type": "function"
    },
    {
      "inputs": [
        {
          "internalType": "string",
          "name": "_defaultBadgeURI",
          "type": "string"
        }
      ],
      "name": "setDefaultBadgeURI",
      "outputs": [],
      "stateMutability": "nonpayable",
      "type": "function"
    },
    {
      "inputs": [
        {
          "internalType": "address",
          "name": "attester",
          "type": "address"
        },
        {
          "internalType": "bool",
          "name": "enable",
          "type": "bool"
        }
      ],
      "name": "toggleAttester",
      "outputs": [],
      "stateMutability": "nonpayable",
      "type": "function"
    },
    {
      "inputs": [
        {
          "internalType": "address",
          "name": "newOwner",
          "type": "address"
        }
      ],
      "name": "transferOwnership",
      "outputs": [],
      "stateMutability": "nonpayable",
      "type": "function"
    }
  ],
  "transactionHash": "0x45ce7089607c65b0d61854ae0b4952688dd84687a4b06afd9f27ad5f6307ca62",
  "args": [
    "0xd2270b3540FD2220Fa1025414e1625af8B0dd8f3",
    "0x90F79bf6EB2c4f870365E785982E1f101E93b906",
    "https://scrolly-badge-server.vercel.app/api/badge/token",
    "https://scrolly-badge-server.vercel.app/api/badge/token?level="
  ],
  "numDeployments": 2,
  "solcInputHash": "2e8390b44d04599db7d78934ae7848f0",
  "bytecode": "0x610160604052670de0b6b3a764000060a05268120d4da7b0bd14000060c052682a1f0a87470e84000060e05268487a9a304539440000610100526884618ecdbabfe800006101205268e3aeb5737240a00000610140523480156200006257600080fd5b5060405162001c2e38038062001c2e833981016040819052620000859162000214565b81846200009233620000e2565b6001600160a01b03166080526003620000ac828262000333565b5050600480546001600160a01b0319166001600160a01b0385161790556005620000d7828262000333565b5050505050620003ff565b600080546001600160a01b038381166001600160a01b0319831681178455604051919092169283917f8be0079c531659141344cd1fd0a4f28419497f9722a3daafe3b4186f6b6457e09190a35050565b80516001600160a01b03811681146200014a57600080fd5b919050565b634e487b7160e01b600052604160045260246000fd5b600082601f8301126200017757600080fd5b81516001600160401b03808211156200019457620001946200014f565b604051601f8301601f19908116603f01168101908282118183101715620001bf57620001bf6200014f565b81604052838152602092508683858801011115620001dc57600080fd5b600091505b83821015620002005785820183015181830184015290820190620001e1565b600093810190920192909252949350505050565b600080600080608085870312156200022b57600080fd5b620002368562000132565b9350620002466020860162000132565b60408601519093506001600160401b03808211156200026457600080fd5b620002728883890162000165565b935060608701519150808211156200028957600080fd5b50620002988782880162000165565b91505092959194509250565b600181811c90821680620002b957607f821691505b602082108103620002da57634e487b7160e01b600052602260045260246000fd5b50919050565b601f8211156200032e57600081815260208120601f850160051c81016020861015620003095750805b601f850160051c820191505b818110156200032a5782815560010162000315565b5050505b505050565b81516001600160401b038111156200034f576200034f6200014f565b6200036781620003608454620002a4565b84620002e0565b602080601f8311600181146200039f5760008415620003865750858301515b600019600386901b1c1916600185901b1785556200032a565b600085815260208120601f198616915b82811015620003d057888601518255948401946001909101908401620003af565b5085821015620003ef5787850151600019600388901b60f8161c191681555b5050505050600190811b01905550565b60805160a05160c05160e05161010051610120516101405161178e620004a0600039600081816102110152610b0c0152600081816104180152610adc0152600081816102810152610aac0152600081816102a80152610a7c0152600081816103cb0152610a4c0152600081816103a40152818161057e0152610a1d01526000818161019801528181610689015281816107c7015261094a015261178e6000f3fe608060405234801561001057600080fd5b506004361061018e5760003560e01c8063abe7f095116100de578063d753a63d11610097578063ee204abb11610071578063ee204abb1461043a578063eed05dce1461044d578063f22abab414610460578063f2fde38b1461046857600080fd5b8063d753a63d146103ed578063e7257d2214610400578063e81d23241461041357600080fd5b8063abe7f0951461034e578063b1a3a35f14610361578063b6ebe53914610369578063c16818981461038c578063ceb51c411461039f578063cfe3e6a0146103c657600080fd5b80636636114d1161014b578063817c896611610125578063817c8966146102e55780638298b0301461030a5780638c6f12f01461031d5780638da5cb5b1461033d57600080fd5b80636636114d146102a357806366e305fd146102ca578063715018a6146102dd57600080fd5b806304f3bcec146101935780630ee48948146101d757806324830563146101ec578063369db6aa1461020c5780635e50864f146102415780636538a7d91461027c575b600080fd5b6101ba7f000000000000000000000000000000000000000000000000000000000000000081565b6040516001600160a01b0390911681526020015b60405180910390f35b6101ea6101e536600461104b565b61047b565b005b6101ff6101fa366004611084565b6104ae565b6040516101ce91906110ed565b6102337f000000000000000000000000000000000000000000000000000000000000000081565b6040519081526020016101ce565b61026c61024f366004611100565b6001600160a01b0316600090815260016020526040902054151590565b60405190151581526020016101ce565b6102337f000000000000000000000000000000000000000000000000000000000000000081565b6102337f000000000000000000000000000000000000000000000000000000000000000081565b61026c6102d8366004611100565b610556565b6101ea6105f2565b6102f86102f3366004611100565b610606565b60405160ff90911681526020016101ce565b61026c61031836600461111d565b61067c565b61033061032b366004611084565b610758565b6040516101ce9190611158565b6000546001600160a01b03166101ba565b6101ea61035c3660046112c2565b610883565b6101ff61089b565b61026c610377366004611100565b60026020526000908152604090205460ff1681565b6101ea61039a3660046112c2565b610929565b6102337f000000000000000000000000000000000000000000000000000000000000000081565b6102337f000000000000000000000000000000000000000000000000000000000000000081565b61026c6103fb36600461111d565b61093d565b6102f861040e366004611084565b610a19565b6102337f000000000000000000000000000000000000000000000000000000000000000081565b610233610448366004611100565b610b47565b6102f861045b366004611084565b610bbb565b6101ff610bdd565b6101ea610476366004611100565b610bea565b610483610c63565b6001600160a01b03919091166000908152600260205260409020805460ff1916911515919091179055565b60608161054757600380546104c290611341565b80601f01602080910402602001604051908101604052809291908181526020018280546104ee90611341565b801561053b5780601f106105105761010080835404028352916020019161053b565b820191906000526020600020905b81548152906001019060200180831161051e57829003601f168201915b50505050509050919050565b61055082610cbd565b92915050565b6004805460405163ee204abb60e01b81526001600160a01b03848116938201939093526000927f000000000000000000000000000000000000000000000000000000000000000092169063ee204abb90602401602060405180830381865afa1580156105c6573d6000803e3d6000fd5b505050506040513d601f19601f820116820180604052508101906105ea919061137b565b101592915050565b6105fa610c63565b6106046000610d02565b565b6004805460405163ee204abb60e01b81526001600160a01b038481169382019390935260009261055092169063ee204abb90602401602060405180830381865afa158015610658573d6000803e3d6000fd5b505050506040513d601f19601f8201168201806040525081019061040e919061137b565b6000336001600160a01b037f000000000000000000000000000000000000000000000000000000000000000016146106c6576040516282b42960e81b815260040160405180910390fd5b6106cf82610d52565b6106db57506000919050565b60018060006106f060e0860160c08701611100565b6001600160a01b03166001600160a01b03168152602001908152602001600020600082825461071f91906113aa565b90915550506040518235907f504e4727721de18c6bf7f66448a6ff6da00aa4b1f00b6034e71723ae7ce6373a90600090a2506001919050565b604080516101408101825260008082526020820181905281830181905260608083018290526080830182905260a0830182905260c0830182905260e08301829052610100830182905261012083015291516308c6f12f60e41b8152600481018490529091906001600160a01b037f00000000000000000000000000000000000000000000000000000000000000001690638c6f12f090602401600060405180830381865afa15801561080e573d6000803e3d6000fd5b505050506040513d6000823e601f3d908101601f191682016040526108369190810190611438565b90506000610848826101200151610d5d565b5090506001600160a01b038116301461087c5760405163b923d26160e01b8152600481018590526024015b60405180910390fd5b5092915050565b61088b610c63565b6003610897828261157d565b5050565b600380546108a890611341565b80601f01602080910402602001604051908101604052809291908181526020018280546108d490611341565b80156109215780601f106108f657610100808354040283529160200191610921565b820191906000526020600020905b81548152906001019060200180831161090457829003601f168201915b505050505081565b610931610c63565b6005610897828261157d565b6000336001600160a01b037f00000000000000000000000000000000000000000000000000000000000000001614610987576040516282b42960e81b815260040160405180910390fd5b61099082610d7e565b61099c57506000919050565b60018060006109b160e0860160c08701611100565b6001600160a01b03166001600160a01b0316815260200190815260200160002060008282546109e0919061163c565b90915550506040518235907fa0785ec0b9bf31a5475d33c716fb9f500f0ea0bb9e4bc10ec39d5db763c1da1590600090a2506001919050565b60007f00000000000000000000000000000000000000000000000000000000000000008211610a4a57506000919050565b7f0000000000000000000000000000000000000000000000000000000000000000821015610a7a57506001919050565b7f0000000000000000000000000000000000000000000000000000000000000000821015610aaa57506002919050565b7f0000000000000000000000000000000000000000000000000000000000000000821015610ada57506003919050565b7f0000000000000000000000000000000000000000000000000000000000000000821015610b0a57506004919050565b7f0000000000000000000000000000000000000000000000000000000000000000821015610b3a57506005919050565b506006919050565b919050565b6004805460405163ee204abb60e01b81526001600160a01b03848116938201939093526000929091169063ee204abb90602401602060405180830381865afa158015610b97573d6000803e3d6000fd5b505050506040513d601f19601f82011682018060405250810190610550919061137b565b600080610bc783610758565b9050610bd68160c00151610606565b9392505050565b600580546108a890611341565b610bf2610c63565b6001600160a01b038116610c575760405162461bcd60e51b815260206004820152602660248201527f4f776e61626c653a206e6577206f776e657220697320746865207a65726f206160448201526564647265737360d01b6064820152608401610873565b610c6081610d02565b50565b6000546001600160a01b031633146106045760405162461bcd60e51b815260206004820181905260248201527f4f776e61626c653a2063616c6c6572206973206e6f7420746865206f776e65726044820152606401610873565b60606000610cca83610bbb565b90506005610cda8260ff16610db8565b604051602001610ceb92919061164f565b604051602081830303815290604052915050919050565b600080546001600160a01b038381166001600160a01b0319831681178455604051919092169283917f8be0079c531659141344cd1fd0a4f28419497f9722a3daafe3b4186f6b6457e09190a35050565b600061055082610e4a565b6000606082806020019051810190610d759190611714565b91509150915091565b6000610d936102d860e0840160c08501611100565b610daf576040516282b42960e81b815260040160405180910390fd5b61055082610e55565b60606000610dc583610ea5565b60010190506000816001600160401b03811115610de457610de461122c565b6040519080825280601f01601f191660200182016040528015610e0e576020820181803683370190505b5090508181016020015b600019016f181899199a1a9b1b9c1cb0b131b232b360811b600a86061a8153600a8504945084610e1857509392505050565b600061055082610f7d565b6000610e6082610f88565b610e6c57506000919050565b610e7f61024f60e0840160c08501611100565b15610e9d57604051630c59311960e11b815260040160405180910390fd5b506001919050565b60008072184f03e93ff9f4daa797ed6e38ed64bf6a1f0160401b8310610ee45772184f03e93ff9f4daa797ed6e38ed64bf6a1f0160401b830492506040015b6d04ee2d6d415b85acef81000000008310610f10576d04ee2d6d415b85acef8100000000830492506020015b662386f26fc100008310610f2e57662386f26fc10000830492506010015b6305f5e1008310610f46576305f5e100830492506008015b6127108310610f5a57612710830492506004015b60648310610f6c576064830492506002015b600a83106105505760010192915050565b600061055082610fd8565b6000610f9382610fd8565b610f9f57506000919050565b6000610fb16080840160608501611764565b6001600160401b031614610e9d57604051637bfd865360e11b815260040160405180910390fd5b600060026000610fef610100850160e08601611100565b6001600160a01b0316815260208101919091526040016000205460ff16610e9d576040516282b42960e81b815260040160405180910390fd5b6001600160a01b0381168114610c6057600080fd5b8015158114610c6057600080fd5b6000806040838503121561105e57600080fd5b823561106981611028565b915060208301356110798161103d565b809150509250929050565b60006020828403121561109657600080fd5b5035919050565b60005b838110156110b85781810151838201526020016110a0565b50506000910152565b600081518084526110d981602086016020860161109d565b601f01601f19169290920160200192915050565b602081526000610bd660208301846110c1565b60006020828403121561111257600080fd5b8135610bd681611028565b60006020828403121561112f57600080fd5b81356001600160401b0381111561114557600080fd5b82016101408185031215610bd657600080fd5b6020815281516020820152602082015160408201526000604083015161118960608401826001600160401b03169052565b5060608301516001600160401b03811660808401525060808301516001600160401b03811660a08401525060a083015160c083015260c08301516111d860e08401826001600160a01b03169052565b5060e08301516101006111f5818501836001600160a01b03169052565b840151905061012061120a8482018315159052565b8401516101408481015290506112246101608401826110c1565b949350505050565b634e487b7160e01b600052604160045260246000fd5b60405161014081016001600160401b03811182821017156112655761126561122c565b60405290565b604051601f8201601f191681016001600160401b03811182821017156112935761129361122c565b604052919050565b60006001600160401b038211156112b4576112b461122c565b50601f01601f191660200190565b6000602082840312156112d457600080fd5b81356001600160401b038111156112ea57600080fd5b8201601f810184136112fb57600080fd5b803561130e6113098261129b565b61126b565b81815285602083850101111561132357600080fd5b81602084016020830137600091810160200191909152949350505050565b600181811c9082168061135557607f821691505b60208210810361137557634e487b7160e01b600052602260045260246000fd5b50919050565b60006020828403121561138d57600080fd5b5051919050565b634e487b7160e01b600052601160045260246000fd5b8181038181111561055057610550611394565b6001600160401b0381168114610c6057600080fd5b8051610b42816113bd565b8051610b4281611028565b8051610b428161103d565b600082601f83011261140457600080fd5b81516114126113098261129b565b81815284602083860101111561142757600080fd5b61122482602083016020870161109d565b60006020828403121561144a57600080fd5b81516001600160401b038082111561146157600080fd5b90830190610140828603121561147657600080fd5b61147e611242565b8251815260208301516020820152611498604084016113d2565b60408201526114a9606084016113d2565b60608201526114ba608084016113d2565b608082015260a083015160a08201526114d560c084016113dd565b60c08201526114e660e084016113dd565b60e08201526101006114f98185016113e8565b90820152610120838101518381111561151157600080fd5b61151d888287016113f3565b918301919091525095945050505050565b601f82111561157857600081815260208120601f850160051c810160208610156115555750805b601f850160051c820191505b8181101561157457828155600101611561565b5050505b505050565b81516001600160401b038111156115965761159661122c565b6115aa816115a48454611341565b8461152e565b602080601f8311600181146115df57600084156115c75750858301515b600019600386901b1c1916600185901b178555611574565b600085815260208120601f198616915b8281101561160e578886015182559484019460019091019084016115ef565b508582101561162c5787850151600019600388901b60f8161c191681555b5050505050600190811b01905550565b8082018082111561055057610550611394565b60608152600080845461166181611341565b8060608601526080600180841660008114611683576001811461169d576116ce565b60ff1985168884015283151560051b8801830195506116ce565b8960005260208060002060005b868110156116c55781548b82018701529084019082016116aa565b8a018501975050505b505050505082810360208401526116e581856110c1565b9050828103604084015261170b816005815264173539b7b760d91b602082015260400190565b95945050505050565b6000806040838503121561172757600080fd5b825161173281611028565b60208401519092506001600160401b0381111561174e57600080fd5b61175a858286016113f3565b9150509250929050565b60006020828403121561177657600080fd5b8135610bd6816113bd56fea164736f6c6343000813000a",
  "devdoc": {
    "author": "Alderian",
    "kind": "dev",
    "methods": {
      "badgeTokenURI(bytes32)": {
        "params": {
          "uid": "The badge UID, or 0x0."
        },
        "returns": {
          "_0": "The badge token URI (same format as ERC721)."
        }
      },
      "getAndValidateBadge(bytes32)": {
        "params": {
          "uid": "The attestation UID."
        },
        "returns": {
          "_0": "The attestation."
        }
      },
      "hasBadge(address)": {
        "params": {
          "user": "The user's wallet address."
        },
        "returns": {
          "_0": "True if the user has one or more of this badge."
        }
      },
      "isEligible(address)": {
        "params": {
          "recipient": "The user's wallet address."
        },
        "returns": {
          "_0": "Whether the user is eligible to mint."
        }
      },
      "issueBadge((bytes32,bytes32,uint64,uint64,uint64,bytes32,address,address,bool,bytes))": {
        "params": {
          "attestation": "The new attestation."
        },
        "returns": {
          "_0": "Whether the attestation is valid."
        }
      },
      "owner()": {
        "details": "Returns the address of the current owner."
      },
      "renounceOwnership()": {
        "details": "Leaves the contract without owner. It will not be possible to call `onlyOwner` functions. Can only be called by the current owner. NOTE: Renouncing ownership will leave the contract without an owner, thereby disabling any functionality that is only available to the owner."
      },
      "revokeBadge((bytes32,bytes32,uint64,uint64,uint64,bytes32,address,address,bool,bytes))": {
        "params": {
          "attestation": "The new attestation."
        },
        "returns": {
          "_0": "Whether the attestation can be revoked."
        }
      },
      "toggleAttester(address,bool)": {
        "params": {
          "attester": "The attester address.",
          "enable": "True if enable, false if disable."
        }
      },
      "transferOwnership(address)": {
        "details": "Transfers ownership of the contract to a new account (`newOwner`). Can only be called by the current owner."
      }
    },
    "title": "ScrollBadgeLevelsScrolly",
    "version": 1
  },
  "userdoc": {
    "kind": "user",
    "methods": {
      "badgeTokenURI(bytes32)": {
        "notice": "Returns the token URI corresponding to a certain badge UID, or the default         badge token URI if the pass UID is 0x0."
      },
      "getAndValidateBadge(bytes32)": {
        "notice": "Validate and return a Scroll badge attestation."
      },
      "hasBadge(address)": {
        "notice": "Returns true if the user has one or more of this badge."
      },
      "isEligible(address)": {
        "notice": "Check if user is eligible to mint this badge."
      },
      "issueBadge((bytes32,bytes32,uint64,uint64,uint64,bytes32,address,address,bool,bytes))": {
        "notice": "A resolver callback invoked in the `issueBadge` function in the parent contract."
      },
      "revokeBadge((bytes32,bytes32,uint64,uint64,uint64,bytes32,address,address,bool,bytes))": {
        "notice": "A resolver callback invoked in the `revokeBadge` function in the parent contract."
      },
      "toggleAttester(address,bool)": {
        "notice": "Enables or disables a given attester."
      }
    },
    "notice": "A badge that represents the Scrolly user's level.",
    "version": 1
  },
  "storageLayout": {
    "storage": [
      {
        "astId": 2123,
        "contract": "contracts/badge/ScrollBadgeLevelsScrolly.sol:ScrollBadgeLevelsScrolly",
        "label": "_owner",
        "offset": 0,
        "slot": "0",
        "type": "t_address"
      },
      {
        "astId": 125,
        "contract": "contracts/badge/ScrollBadgeLevelsScrolly.sol:ScrollBadgeLevelsScrolly",
        "label": "_userBadgeCount",
        "offset": 0,
        "slot": "1",
        "type": "t_mapping(t_address,t_uint256)"
      },
      {
        "astId": 332,
        "contract": "contracts/badge/ScrollBadgeLevelsScrolly.sol:ScrollBadgeLevelsScrolly",
        "label": "isAttester",
        "offset": 0,
        "slot": "2",
        "type": "t_mapping(t_address,t_bool)"
      },
      {
        "astId": 423,
        "contract": "contracts/badge/ScrollBadgeLevelsScrolly.sol:ScrollBadgeLevelsScrolly",
        "label": "defaultBadgeURI",
        "offset": 0,
        "slot": "3",
        "type": "t_string_storage"
      },
      {
        "astId": 4540,
        "contract": "contracts/badge/ScrollBadgeLevelsScrolly.sol:ScrollBadgeLevelsScrolly",
        "label": "apAddress",
        "offset": 0,
        "slot": "4",
        "type": "t_address"
      },
      {
        "astId": 4542,
        "contract": "contracts/badge/ScrollBadgeLevelsScrolly.sol:ScrollBadgeLevelsScrolly",
        "label": "baseBadgeURI",
        "offset": 0,
        "slot": "5",
        "type": "t_string_storage"
      }
    ],
    "types": {
      "t_address": {
        "encoding": "inplace",
        "label": "address",
        "numberOfBytes": "20"
      },
      "t_bool": {
        "encoding": "inplace",
        "label": "bool",
        "numberOfBytes": "1"
      },
      "t_mapping(t_address,t_bool)": {
        "encoding": "mapping",
        "key": "t_address",
        "label": "mapping(address => bool)",
        "numberOfBytes": "32",
        "value": "t_bool"
      },
      "t_mapping(t_address,t_uint256)": {
        "encoding": "mapping",
        "key": "t_address",
        "label": "mapping(address => uint256)",
        "numberOfBytes": "32",
        "value": "t_uint256"
      },
      "t_string_storage": {
        "encoding": "bytes",
        "label": "string",
        "numberOfBytes": "32"
      },
      "t_uint256": {
        "encoding": "inplace",
        "label": "uint256",
        "numberOfBytes": "32"
      }
    }
  }
}