{
  "address": "0x2ABB53598059F4e15cE380c717ae7688F8E3A6AA",
  "abi": [
    {
      "inputs": [
        {
          "internalType": "address",
          "name": "resolver_",
          "type": "address"
        },
        {
          "internalType": "address",
          "name": "activityPoints_",
          "type": "address"
        },
        {
          "internalType": "string",
          "name": "_defaultBadgeURI",
          "type": "string"
        },
        {
          "internalType": "string",
          "name": "_baseBadgeURI",
          "type": "string"
        }
      ],
      "stateMutability": "nonpayable",
      "type": "constructor"
    },
    {
      "inputs": [
        {
          "internalType": "bytes32",
          "name": "uid",
          "type": "bytes32"
        }
      ],
      "name": "AttestationBadgeMismatch",
      "type": "error"
    },
    {
      "inputs": [],
      "name": "ExpirationDisabled",
      "type": "error"
    },
    {
      "inputs": [],
      "name": "SingletonBadge",
      "type": "error"
    },
    {
      "inputs": [],
      "name": "Unauthorized",
      "type": "error"
    },
    {
      "anonymous": false,
      "inputs": [
        {
          "indexed": true,
          "internalType": "bytes32",
          "name": "uid",
          "type": "bytes32"
        }
      ],
      "name": "IssueBadge",
      "type": "event"
    },
    {
      "anonymous": false,
      "inputs": [
        {
          "indexed": true,
          "internalType": "address",
          "name": "previousOwner",
          "type": "address"
        },
        {
          "indexed": true,
          "internalType": "address",
          "name": "newOwner",
          "type": "address"
        }
      ],
      "name": "OwnershipTransferred",
      "type": "event"
    },
    {
      "anonymous": false,
      "inputs": [
        {
          "indexed": true,
          "internalType": "bytes32",
          "name": "uid",
          "type": "bytes32"
        }
      ],
      "name": "RevokeBadge",
      "type": "event"
    },
    {
      "inputs": [],
      "name": "MINIMUM_POINTS_ELIGIBILITY",
      "outputs": [
        {
          "internalType": "uint256",
          "name": "",
          "type": "uint256"
        }
      ],
      "stateMutability": "view",
      "type": "function"
    },
    {
      "inputs": [],
      "name": "MINIMUM_POINTS_LEVEL_2",
      "outputs": [
        {
          "internalType": "uint256",
          "name": "",
          "type": "uint256"
        }
      ],
      "stateMutability": "view",
      "type": "function"
    },
    {
      "inputs": [],
      "name": "MINIMUM_POINTS_LEVEL_3",
      "outputs": [
        {
          "internalType": "uint256",
          "name": "",
          "type": "uint256"
        }
      ],
      "stateMutability": "view",
      "type": "function"
    },
    {
      "inputs": [],
      "name": "MINIMUM_POINTS_LEVEL_4",
      "outputs": [
        {
          "internalType": "uint256",
          "name": "",
          "type": "uint256"
        }
      ],
      "stateMutability": "view",
      "type": "function"
    },
    {
      "inputs": [],
      "name": "MINIMUM_POINTS_LEVEL_5",
      "outputs": [
        {
          "internalType": "uint256",
          "name": "",
          "type": "uint256"
        }
      ],
      "stateMutability": "view",
      "type": "function"
    },
    {
      "inputs": [],
      "name": "MINIMUM_POINTS_LEVEL_6",
      "outputs": [
        {
          "internalType": "uint256",
          "name": "",
          "type": "uint256"
        }
      ],
      "stateMutability": "view",
      "type": "function"
    },
    {
      "inputs": [],
      "name": "apAddress",
      "outputs": [
        {
          "internalType": "address",
          "name": "",
          "type": "address"
        }
      ],
      "stateMutability": "view",
      "type": "function"
    },
    {
      "inputs": [
        {
          "internalType": "bytes32",
          "name": "uid",
          "type": "bytes32"
        }
      ],
      "name": "badgeTokenURI",
      "outputs": [
        {
          "internalType": "string",
          "name": "",
          "type": "string"
        }
      ],
      "stateMutability": "view",
      "type": "function"
    },
    {
      "inputs": [],
      "name": "baseBadgeURI",
      "outputs": [
        {
          "internalType": "string",
          "name": "",
          "type": "string"
        }
      ],
      "stateMutability": "view",
      "type": "function"
    },
    {
      "inputs": [],
      "name": "defaultBadgeURI",
      "outputs": [
        {
          "internalType": "string",
          "name": "",
          "type": "string"
        }
      ],
      "stateMutability": "view",
      "type": "function"
    },
    {
      "inputs": [
        {
          "internalType": "uint256",
          "name": "points",
          "type": "uint256"
        }
      ],
      "name": "determineBadgeLevel",
      "outputs": [
        {
          "internalType": "uint8",
          "name": "",
          "type": "uint8"
        }
      ],
      "stateMutability": "pure",
      "type": "function"
    },
    {
      "inputs": [
        {
          "internalType": "bytes32",
          "name": "uid",
          "type": "bytes32"
        }
      ],
      "name": "getAndValidateBadge",
      "outputs": [
        {
          "components": [
            {
              "internalType": "bytes32",
              "name": "uid",
              "type": "bytes32"
            },
            {
              "internalType": "bytes32",
              "name": "schema",
              "type": "bytes32"
            },
            {
              "internalType": "uint64",
              "name": "time",
              "type": "uint64"
            },
            {
              "internalType": "uint64",
              "name": "expirationTime",
              "type": "uint64"
            },
            {
              "internalType": "uint64",
              "name": "revocationTime",
              "type": "uint64"
            },
            {
              "internalType": "bytes32",
              "name": "refUID",
              "type": "bytes32"
            },
            {
              "internalType": "address",
              "name": "recipient",
              "type": "address"
            },
            {
              "internalType": "address",
              "name": "attester",
              "type": "address"
            },
            {
              "internalType": "bool",
              "name": "revocable",
              "type": "bool"
            },
            {
              "internalType": "bytes",
              "name": "data",
              "type": "bytes"
            }
          ],
          "internalType": "struct Attestation",
          "name": "",
          "type": "tuple"
        }
      ],
      "stateMutability": "view",
      "type": "function"
    },
    {
      "inputs": [
        {
          "internalType": "bytes32",
          "name": "uid",
          "type": "bytes32"
        }
      ],
      "name": "getCurrentLevel",
      "outputs": [
        {
          "internalType": "uint8",
          "name": "",
          "type": "uint8"
        }
      ],
      "stateMutability": "view",
      "type": "function"
    },
    {
      "inputs": [
        {
          "internalType": "address",
          "name": "recipient",
          "type": "address"
        }
      ],
      "name": "getLevel",
      "outputs": [
        {
          "internalType": "uint8",
          "name": "",
          "type": "uint8"
        }
      ],
      "stateMutability": "view",
      "type": "function"
    },
    {
      "inputs": [
        {
          "internalType": "address",
          "name": "recipient",
          "type": "address"
        }
      ],
      "name": "getPoints",
      "outputs": [
        {
          "internalType": "uint256",
          "name": "",
          "type": "uint256"
        }
      ],
      "stateMutability": "view",
      "type": "function"
    },
    {
      "inputs": [
        {
          "internalType": "address",
          "name": "user",
          "type": "address"
        }
      ],
      "name": "hasBadge",
      "outputs": [
        {
          "internalType": "bool",
          "name": "",
          "type": "bool"
        }
      ],
      "stateMutability": "view",
      "type": "function"
    },
    {
      "inputs": [
        {
          "internalType": "address",
          "name": "",
          "type": "address"
        }
      ],
      "name": "isAttester",
      "outputs": [
        {
          "internalType": "bool",
          "name": "",
          "type": "bool"
        }
      ],
      "stateMutability": "view",
      "type": "function"
    },
    {
      "inputs": [
        {
          "internalType": "address",
          "name": "recipient",
          "type": "address"
        }
      ],
      "name": "isEligible",
      "outputs": [
        {
          "internalType": "bool",
          "name": "",
          "type": "bool"
        }
      ],
      "stateMutability": "view",
      "type": "function"
    },
    {
      "inputs": [
        {
          "components": [
            {
              "internalType": "bytes32",
              "name": "uid",
              "type": "bytes32"
            },
            {
              "internalType": "bytes32",
              "name": "schema",
              "type": "bytes32"
            },
            {
              "internalType": "uint64",
              "name": "time",
              "type": "uint64"
            },
            {
              "internalType": "uint64",
              "name": "expirationTime",
              "type": "uint64"
            },
            {
              "internalType": "uint64",
              "name": "revocationTime",
              "type": "uint64"
            },
            {
              "internalType": "bytes32",
              "name": "refUID",
              "type": "bytes32"
            },
            {
              "internalType": "address",
              "name": "recipient",
              "type": "address"
            },
            {
              "internalType": "address",
              "name": "attester",
              "type": "address"
            },
            {
              "internalType": "bool",
              "name": "revocable",
              "type": "bool"
            },
            {
              "internalType": "bytes",
              "name": "data",
              "type": "bytes"
            }
          ],
          "internalType": "struct Attestation",
          "name": "attestation",
          "type": "tuple"
        }
      ],
      "name": "issueBadge",
      "outputs": [
        {
          "internalType": "bool",
          "name": "",
          "type": "bool"
        }
      ],
      "stateMutability": "nonpayable",
      "type": "function"
    },
    {
      "inputs": [],
      "name": "owner",
      "outputs": [
        {
          "internalType": "address",
          "name": "",
          "type": "address"
        }
      ],
      "stateMutability": "view",
      "type": "function"
    },
    {
      "inputs": [],
      "name": "renounceOwnership",
      "outputs": [],
      "stateMutability": "nonpayable",
      "type": "function"
    },
    {
      "inputs": [],
      "name": "resolver",
      "outputs": [
        {
          "internalType": "address",
          "name": "",
          "type": "address"
        }
      ],
      "stateMutability": "view",
      "type": "function"
    },
    {
      "inputs": [
        {
          "components": [
            {
              "internalType": "bytes32",
              "name": "uid",
              "type": "bytes32"
            },
            {
              "internalType": "bytes32",
              "name": "schema",
              "type": "bytes32"
            },
            {
              "internalType": "uint64",
              "name": "time",
              "type": "uint64"
            },
            {
              "internalType": "uint64",
              "name": "expirationTime",
              "type": "uint64"
            },
            {
              "internalType": "uint64",
              "name": "revocationTime",
              "type": "uint64"
            },
            {
              "internalType": "bytes32",
              "name": "refUID",
              "type": "bytes32"
            },
            {
              "internalType": "address",
              "name": "recipient",
              "type": "address"
            },
            {
              "internalType": "address",
              "name": "attester",
              "type": "address"
            },
            {
              "internalType": "bool",
              "name": "revocable",
              "type": "bool"
            },
            {
              "internalType": "bytes",
              "name": "data",
              "type": "bytes"
            }
          ],
          "internalType": "struct Attestation",
          "name": "attestation",
          "type": "tuple"
        }
      ],
      "name": "revokeBadge",
      "outputs": [
        {
          "internalType": "bool",
          "name": "",
          "type": "bool"
        }
      ],
      "stateMutability": "nonpayable",
      "type": "function"
    },
    {
      "inputs": [
        {
          "internalType": "address",
          "name": "_apAddress",
          "type": "address"
        }
      ],
      "name": "setApAddress",
      "outputs": [],
      "stateMutability": "nonpayable",
      "type": "function"
    },
    {
      "inputs": [
        {
          "internalType": "string",
          "name": "_baseBadgeURI",
          "type": "string"
        }
      ],
      "name": "setBaseBadgeURI",
      "outputs": [],
      "stateMutability": "nonpayable",
      "type": "function"
    },
    {
      "inputs": [
        {
          "internalType": "string",
          "name": "_defaultBadgeURI",
          "type": "string"
        }
      ],
      "name": "setDefaultBadgeURI",
      "outputs": [],
      "stateMutability": "nonpayable",
      "type": "function"
    },
    {
      "inputs": [
        {
          "internalType": "address",
          "name": "attester",
          "type": "address"
        },
        {
          "internalType": "bool",
          "name": "enable",
          "type": "bool"
        }
      ],
      "name": "toggleAttester",
      "outputs": [],
      "stateMutability": "nonpayable",
      "type": "function"
    },
    {
      "inputs": [
        {
          "internalType": "address",
          "name": "newOwner",
          "type": "address"
        }
      ],
      "name": "transferOwnership",
      "outputs": [],
      "stateMutability": "nonpayable",
      "type": "function"
    }
  ],
  "transactionHash": "0xdfd6efaf5326bc8e5877fdb0b03bc72ab41bd07f7787b3a091d9174511760ca7",
  "args": [
    "0xd2270b3540FD2220Fa1025414e1625af8B0dd8f3",
    "0x4a82158ff4b0504f3db4c7555ffb6298452985e2",
    "https://scrolly-badge-server.vercel.app/api/badge/token",
    "https://scrolly-badge-server.vercel.app/api/badge/token?level="
  ],
  "numDeployments": 1,
  "solcInputHash": "e7585e390c9d8b64d76b0fad982a7542",
  "bytecode": "0x610160604052670de0b6b3a764000060a05268120d4da7b0bd14000060c052682a1f0a87470e84000060e05268487a9a304539440000610100526884618ecdbabfe800006101205268e3aeb5737240a00000610140523480156200006257600080fd5b5060405162001cb438038062001cb4833981016040819052620000859162000214565b81846200009233620000e2565b6001600160a01b03166080526003620000ac828262000333565b5050600480546001600160a01b0319166001600160a01b0385161790556005620000d7828262000333565b5050505050620003ff565b600080546001600160a01b038381166001600160a01b0319831681178455604051919092169283917f8be0079c531659141344cd1fd0a4f28419497f9722a3daafe3b4186f6b6457e09190a35050565b80516001600160a01b03811681146200014a57600080fd5b919050565b634e487b7160e01b600052604160045260246000fd5b600082601f8301126200017757600080fd5b81516001600160401b03808211156200019457620001946200014f565b604051601f8301601f19908116603f01168101908282118183101715620001bf57620001bf6200014f565b81604052838152602092508683858801011115620001dc57600080fd5b600091505b83821015620002005785820183015181830184015290820190620001e1565b600093810190920192909252949350505050565b600080600080608085870312156200022b57600080fd5b620002368562000132565b9350620002466020860162000132565b60408601519093506001600160401b03808211156200026457600080fd5b620002728883890162000165565b935060608701519150808211156200028957600080fd5b50620002988782880162000165565b91505092959194509250565b600181811c90821680620002b957607f821691505b602082108103620002da57634e487b7160e01b600052602260045260246000fd5b50919050565b601f8211156200032e57600081815260208120601f850160051c81016020861015620003095750805b601f850160051c820191505b818110156200032a5782815560010162000315565b5050505b505050565b81516001600160401b038111156200034f576200034f6200014f565b6200036781620003608454620002a4565b84620002e0565b602080601f8311600181146200039f5760008415620003865750858301515b600019600386901b1c1916600185901b1785556200032a565b600085815260208120601f198616915b82811015620003d057888601518255948401946001909101908401620003af565b5085821015620003ef5787850151600019600388901b60f8161c191681555b5050505050600190811b01905550565b60805160a05160c05160e051610100516101205161014051611814620004a0600039600081816102470152610b920152600081816104740152610b620152600081816102dd0152610b320152600081816103040152610b020152600081816104270152610ad2015260008181610400015281816106040152610aa30152600081816101ce0152818161070f0152818161084d01526109d001526118146000f3fe608060405234801561001057600080fd5b50600436106101c45760003560e01c80638da5cb5b116100f9578063d753a63d11610097578063ee204abb11610071578063ee204abb14610496578063eed05dce146104a9578063f22abab4146104bc578063f2fde38b146104c457600080fd5b8063d753a63d14610449578063e7257d221461045c578063e81d23241461046f57600080fd5b8063b6ebe539116100d3578063b6ebe539146103c5578063c1681898146103e8578063ceb51c41146103fb578063cfe3e6a01461042257600080fd5b80638da5cb5b14610399578063abe7f095146103aa578063b1a3a35f146103bd57600080fd5b80636538a7d911610166578063715018a611610140578063715018a614610339578063817c8966146103415780638298b030146103665780638c6f12f01461037957600080fd5b80636538a7d9146102d85780636636114d146102ff57806366e305fd1461032657600080fd5b8063369db6aa116101a2578063369db6aa146102425780634db82f18146102775780635077dda31461028a5780635e50864f1461029d57600080fd5b806304f3bcec146101c95780630ee489481461020d5780632483056314610222575b600080fd5b6101f07f000000000000000000000000000000000000000000000000000000000000000081565b6040516001600160a01b0390911681526020015b60405180910390f35b61022061021b3660046110d1565b6104d7565b005b61023561023036600461110a565b61050a565b6040516102049190611173565b6102697f000000000000000000000000000000000000000000000000000000000000000081565b604051908152602001610204565b6004546101f0906001600160a01b031681565b610220610298366004611186565b6105b2565b6102c86102ab366004611186565b6001600160a01b0316600090815260016020526040902054151590565b6040519015158152602001610204565b6102697f000000000000000000000000000000000000000000000000000000000000000081565b6102697f000000000000000000000000000000000000000000000000000000000000000081565b6102c8610334366004611186565b6105dc565b610220610678565b61035461034f366004611186565b61068c565b60405160ff9091168152602001610204565b6102c86103743660046111a3565b610702565b61038c61038736600461110a565b6107de565b60405161020491906111de565b6000546001600160a01b03166101f0565b6102206103b8366004611348565b610909565b610235610921565b6102c86103d3366004611186565b60026020526000908152604090205460ff1681565b6102206103f6366004611348565b6109af565b6102697f000000000000000000000000000000000000000000000000000000000000000081565b6102697f000000000000000000000000000000000000000000000000000000000000000081565b6102c86104573660046111a3565b6109c3565b61035461046a36600461110a565b610a9f565b6102697f000000000000000000000000000000000000000000000000000000000000000081565b6102696104a4366004611186565b610bcd565b6103546104b736600461110a565b610c41565b610235610c63565b6102206104d2366004611186565b610c70565b6104df610ce9565b6001600160a01b03919091166000908152600260205260409020805460ff1916911515919091179055565b6060816105a3576003805461051e906113c7565b80601f016020809104026020016040519081016040528092919081815260200182805461054a906113c7565b80156105975780601f1061056c57610100808354040283529160200191610597565b820191906000526020600020905b81548152906001019060200180831161057a57829003601f168201915b50505050509050919050565b6105ac82610d43565b92915050565b6105ba610ce9565b600480546001600160a01b0319166001600160a01b0392909216919091179055565b6004805460405163ee204abb60e01b81526001600160a01b03848116938201939093526000927f000000000000000000000000000000000000000000000000000000000000000092169063ee204abb90602401602060405180830381865afa15801561064c573d6000803e3d6000fd5b505050506040513d601f19601f820116820180604052508101906106709190611401565b101592915050565b610680610ce9565b61068a6000610d88565b565b6004805460405163ee204abb60e01b81526001600160a01b03848116938201939093526000926105ac92169063ee204abb90602401602060405180830381865afa1580156106de573d6000803e3d6000fd5b505050506040513d601f19601f8201168201806040525081019061046a9190611401565b6000336001600160a01b037f0000000000000000000000000000000000000000000000000000000000000000161461074c576040516282b42960e81b815260040160405180910390fd5b61075582610dd8565b61076157506000919050565b600180600061077660e0860160c08701611186565b6001600160a01b03166001600160a01b0316815260200190815260200160002060008282546107a59190611430565b90915550506040518235907f504e4727721de18c6bf7f66448a6ff6da00aa4b1f00b6034e71723ae7ce6373a90600090a2506001919050565b604080516101408101825260008082526020820181905281830181905260608083018290526080830182905260a0830182905260c0830182905260e08301829052610100830182905261012083015291516308c6f12f60e41b8152600481018490529091906001600160a01b037f00000000000000000000000000000000000000000000000000000000000000001690638c6f12f090602401600060405180830381865afa158015610894573d6000803e3d6000fd5b505050506040513d6000823e601f3d908101601f191682016040526108bc91908101906114be565b905060006108ce826101200151610de3565b5090506001600160a01b03811630146109025760405163b923d26160e01b8152600481018590526024015b60405180910390fd5b5092915050565b610911610ce9565b600361091d8282611603565b5050565b6003805461092e906113c7565b80601f016020809104026020016040519081016040528092919081815260200182805461095a906113c7565b80156109a75780601f1061097c576101008083540402835291602001916109a7565b820191906000526020600020905b81548152906001019060200180831161098a57829003601f168201915b505050505081565b6109b7610ce9565b600561091d8282611603565b6000336001600160a01b037f00000000000000000000000000000000000000000000000000000000000000001614610a0d576040516282b42960e81b815260040160405180910390fd5b610a1682610e04565b610a2257506000919050565b6001806000610a3760e0860160c08701611186565b6001600160a01b03166001600160a01b031681526020019081526020016000206000828254610a6691906116c2565b90915550506040518235907fa0785ec0b9bf31a5475d33c716fb9f500f0ea0bb9e4bc10ec39d5db763c1da1590600090a2506001919050565b60007f00000000000000000000000000000000000000000000000000000000000000008211610ad057506000919050565b7f0000000000000000000000000000000000000000000000000000000000000000821015610b0057506001919050565b7f0000000000000000000000000000000000000000000000000000000000000000821015610b3057506002919050565b7f0000000000000000000000000000000000000000000000000000000000000000821015610b6057506003919050565b7f0000000000000000000000000000000000000000000000000000000000000000821015610b9057506004919050565b7f0000000000000000000000000000000000000000000000000000000000000000821015610bc057506005919050565b506006919050565b919050565b6004805460405163ee204abb60e01b81526001600160a01b03848116938201939093526000929091169063ee204abb90602401602060405180830381865afa158015610c1d573d6000803e3d6000fd5b505050506040513d601f19601f820116820180604052508101906105ac9190611401565b600080610c4d836107de565b9050610c5c8160c0015161068c565b9392505050565b6005805461092e906113c7565b610c78610ce9565b6001600160a01b038116610cdd5760405162461bcd60e51b815260206004820152602660248201527f4f776e61626c653a206e6577206f776e657220697320746865207a65726f206160448201526564647265737360d01b60648201526084016108f9565b610ce681610d88565b50565b6000546001600160a01b0316331461068a5760405162461bcd60e51b815260206004820181905260248201527f4f776e61626c653a2063616c6c6572206973206e6f7420746865206f776e657260448201526064016108f9565b60606000610d5083610c41565b90506005610d608260ff16610e3e565b604051602001610d719291906116d5565b604051602081830303815290604052915050919050565b600080546001600160a01b038381166001600160a01b0319831681178455604051919092169283917f8be0079c531659141344cd1fd0a4f28419497f9722a3daafe3b4186f6b6457e09190a35050565b60006105ac82610ed0565b6000606082806020019051810190610dfb919061179a565b91509150915091565b6000610e1961033460e0840160c08501611186565b610e35576040516282b42960e81b815260040160405180910390fd5b6105ac82610edb565b60606000610e4b83610f2b565b60010190506000816001600160401b03811115610e6a57610e6a6112b2565b6040519080825280601f01601f191660200182016040528015610e94576020820181803683370190505b5090508181016020015b600019016f181899199a1a9b1b9c1cb0b131b232b360811b600a86061a8153600a8504945084610e9e57509392505050565b60006105ac82611003565b6000610ee68261100e565b610ef257506000919050565b610f056102ab60e0840160c08501611186565b15610f2357604051630c59311960e11b815260040160405180910390fd5b506001919050565b60008072184f03e93ff9f4daa797ed6e38ed64bf6a1f0160401b8310610f6a5772184f03e93ff9f4daa797ed6e38ed64bf6a1f0160401b830492506040015b6d04ee2d6d415b85acef81000000008310610f96576d04ee2d6d415b85acef8100000000830492506020015b662386f26fc100008310610fb457662386f26fc10000830492506010015b6305f5e1008310610fcc576305f5e100830492506008015b6127108310610fe057612710830492506004015b60648310610ff2576064830492506002015b600a83106105ac5760010192915050565b60006105ac8261105e565b60006110198261105e565b61102557506000919050565b600061103760808401606085016117ea565b6001600160401b031614610f2357604051637bfd865360e11b815260040160405180910390fd5b600060026000611075610100850160e08601611186565b6001600160a01b0316815260208101919091526040016000205460ff16610f23576040516282b42960e81b815260040160405180910390fd5b6001600160a01b0381168114610ce657600080fd5b8015158114610ce657600080fd5b600080604083850312156110e457600080fd5b82356110ef816110ae565b915060208301356110ff816110c3565b809150509250929050565b60006020828403121561111c57600080fd5b5035919050565b60005b8381101561113e578181015183820152602001611126565b50506000910152565b6000815180845261115f816020860160208601611123565b601f01601f19169290920160200192915050565b602081526000610c5c6020830184611147565b60006020828403121561119857600080fd5b8135610c5c816110ae565b6000602082840312156111b557600080fd5b81356001600160401b038111156111cb57600080fd5b82016101408185031215610c5c57600080fd5b6020815281516020820152602082015160408201526000604083015161120f60608401826001600160401b03169052565b5060608301516001600160401b03811660808401525060808301516001600160401b03811660a08401525060a083015160c083015260c083015161125e60e08401826001600160a01b03169052565b5060e083015161010061127b818501836001600160a01b03169052565b84015190506101206112908482018315159052565b8401516101408481015290506112aa610160840182611147565b949350505050565b634e487b7160e01b600052604160045260246000fd5b60405161014081016001600160401b03811182821017156112eb576112eb6112b2565b60405290565b604051601f8201601f191681016001600160401b0381118282101715611319576113196112b2565b604052919050565b60006001600160401b0382111561133a5761133a6112b2565b50601f01601f191660200190565b60006020828403121561135a57600080fd5b81356001600160401b0381111561137057600080fd5b8201601f8101841361138157600080fd5b803561139461138f82611321565b6112f1565b8181528560208385010111156113a957600080fd5b81602084016020830137600091810160200191909152949350505050565b600181811c908216806113db57607f821691505b6020821081036113fb57634e487b7160e01b600052602260045260246000fd5b50919050565b60006020828403121561141357600080fd5b5051919050565b634e487b7160e01b600052601160045260246000fd5b818103818111156105ac576105ac61141a565b6001600160401b0381168114610ce657600080fd5b8051610bc881611443565b8051610bc8816110ae565b8051610bc8816110c3565b600082601f83011261148a57600080fd5b815161149861138f82611321565b8181528460208386010111156114ad57600080fd5b6112aa826020830160208701611123565b6000602082840312156114d057600080fd5b81516001600160401b03808211156114e757600080fd5b9083019061014082860312156114fc57600080fd5b6115046112c8565b825181526020830151602082015261151e60408401611458565b604082015261152f60608401611458565b606082015261154060808401611458565b608082015260a083015160a082015261155b60c08401611463565b60c082015261156c60e08401611463565b60e082015261010061157f81850161146e565b90820152610120838101518381111561159757600080fd5b6115a388828701611479565b918301919091525095945050505050565b601f8211156115fe57600081815260208120601f850160051c810160208610156115db5750805b601f850160051c820191505b818110156115fa578281556001016115e7565b5050505b505050565b81516001600160401b0381111561161c5761161c6112b2565b6116308161162a84546113c7565b846115b4565b602080601f831160018114611665576000841561164d5750858301515b600019600386901b1c1916600185901b1785556115fa565b600085815260208120601f198616915b8281101561169457888601518255948401946001909101908401611675565b50858210156116b25787850151600019600388901b60f8161c191681555b5050505050600190811b01905550565b808201808211156105ac576105ac61141a565b6060815260008084546116e7816113c7565b8060608601526080600180841660008114611709576001811461172357611754565b60ff1985168884015283151560051b880183019550611754565b8960005260208060002060005b8681101561174b5781548b8201870152908401908201611730565b8a018501975050505b5050505050828103602084015261176b8185611147565b90508281036040840152611791816005815264173539b7b760d91b602082015260400190565b95945050505050565b600080604083850312156117ad57600080fd5b82516117b8816110ae565b60208401519092506001600160401b038111156117d457600080fd5b6117e085828601611479565b9150509250929050565b6000602082840312156117fc57600080fd5b8135610c5c8161144356fea164736f6c6343000813000a",
  "devdoc": {
    "author": "Alderian",
    "kind": "dev",
    "methods": {
      "badgeTokenURI(bytes32)": {
        "params": {
          "uid": "The badge UID, or 0x0."
        },
        "returns": {
          "_0": "The badge token URI (same format as ERC721)."
        }
      },
      "getAndValidateBadge(bytes32)": {
        "params": {
          "uid": "The attestation UID."
        },
        "returns": {
          "_0": "The attestation."
        }
      },
      "hasBadge(address)": {
        "params": {
          "user": "The user's wallet address."
        },
        "returns": {
          "_0": "True if the user has one or more of this badge."
        }
      },
      "isEligible(address)": {
        "params": {
          "recipient": "The user's wallet address."
        },
        "returns": {
          "_0": "Whether the user is eligible to mint."
        }
      },
      "issueBadge((bytes32,bytes32,uint64,uint64,uint64,bytes32,address,address,bool,bytes))": {
        "params": {
          "attestation": "The new attestation."
        },
        "returns": {
          "_0": "Whether the attestation is valid."
        }
      },
      "owner()": {
        "details": "Returns the address of the current owner."
      },
      "renounceOwnership()": {
        "details": "Leaves the contract without owner. It will not be possible to call `onlyOwner` functions. Can only be called by the current owner. NOTE: Renouncing ownership will leave the contract without an owner, thereby disabling any functionality that is only available to the owner."
      },
      "revokeBadge((bytes32,bytes32,uint64,uint64,uint64,bytes32,address,address,bool,bytes))": {
        "params": {
          "attestation": "The new attestation."
        },
        "returns": {
          "_0": "Whether the attestation can be revoked."
        }
      },
      "toggleAttester(address,bool)": {
        "params": {
          "attester": "The attester address.",
          "enable": "True if enable, false if disable."
        }
      },
      "transferOwnership(address)": {
        "details": "Transfers ownership of the contract to a new account (`newOwner`). Can only be called by the current owner."
      }
    },
    "title": "ScrollBadgeLevelsScrolly",
    "version": 1
  },
  "userdoc": {
    "kind": "user",
    "methods": {
      "badgeTokenURI(bytes32)": {
        "notice": "Returns the token URI corresponding to a certain badge UID, or the default         badge token URI if the pass UID is 0x0."
      },
      "getAndValidateBadge(bytes32)": {
        "notice": "Validate and return a Scroll badge attestation."
      },
      "hasBadge(address)": {
        "notice": "Returns true if the user has one or more of this badge."
      },
      "isEligible(address)": {
        "notice": "Check if user is eligible to mint this badge."
      },
      "issueBadge((bytes32,bytes32,uint64,uint64,uint64,bytes32,address,address,bool,bytes))": {
        "notice": "A resolver callback invoked in the `issueBadge` function in the parent contract."
      },
      "revokeBadge((bytes32,bytes32,uint64,uint64,uint64,bytes32,address,address,bool,bytes))": {
        "notice": "A resolver callback invoked in the `revokeBadge` function in the parent contract."
      },
      "toggleAttester(address,bool)": {
        "notice": "Enables or disables a given attester."
      }
    },
    "notice": "A badge that represents the Scrolly user's level.",
    "version": 1
  },
  "storageLayout": {
    "storage": [
      {
        "astId": 2123,
        "contract": "contracts/badge/ScrollBadgeLevelsScrolly.sol:ScrollBadgeLevelsScrolly",
        "label": "_owner",
        "offset": 0,
        "slot": "0",
        "type": "t_address"
      },
      {
        "astId": 125,
        "contract": "contracts/badge/ScrollBadgeLevelsScrolly.sol:ScrollBadgeLevelsScrolly",
        "label": "_userBadgeCount",
        "offset": 0,
        "slot": "1",
        "type": "t_mapping(t_address,t_uint256)"
      },
      {
        "astId": 332,
        "contract": "contracts/badge/ScrollBadgeLevelsScrolly.sol:ScrollBadgeLevelsScrolly",
        "label": "isAttester",
        "offset": 0,
        "slot": "2",
        "type": "t_mapping(t_address,t_bool)"
      },
      {
        "astId": 423,
        "contract": "contracts/badge/ScrollBadgeLevelsScrolly.sol:ScrollBadgeLevelsScrolly",
        "label": "defaultBadgeURI",
        "offset": 0,
        "slot": "3",
        "type": "t_string_storage"
      },
      {
        "astId": 4540,
        "contract": "contracts/badge/ScrollBadgeLevelsScrolly.sol:ScrollBadgeLevelsScrolly",
        "label": "apAddress",
        "offset": 0,
        "slot": "4",
        "type": "t_address"
      },
      {
        "astId": 4542,
        "contract": "contracts/badge/ScrollBadgeLevelsScrolly.sol:ScrollBadgeLevelsScrolly",
        "label": "baseBadgeURI",
        "offset": 0,
        "slot": "5",
        "type": "t_string_storage"
      }
    ],
    "types": {
      "t_address": {
        "encoding": "inplace",
        "label": "address",
        "numberOfBytes": "20"
      },
      "t_bool": {
        "encoding": "inplace",
        "label": "bool",
        "numberOfBytes": "1"
      },
      "t_mapping(t_address,t_bool)": {
        "encoding": "mapping",
        "key": "t_address",
        "label": "mapping(address => bool)",
        "numberOfBytes": "32",
        "value": "t_bool"
      },
      "t_mapping(t_address,t_uint256)": {
        "encoding": "mapping",
        "key": "t_address",
        "label": "mapping(address => uint256)",
        "numberOfBytes": "32",
        "value": "t_uint256"
      },
      "t_string_storage": {
        "encoding": "bytes",
        "label": "string",
        "numberOfBytes": "32"
      },
      "t_uint256": {
        "encoding": "inplace",
        "label": "uint256",
        "numberOfBytes": "32"
      }
    }
  }
}